{
	"contracts/1_eip712.sol": {
		"EIP712Example": {
			"abi": [
				{
					"inputs": [],
					"stateMutability": "nonpayable",
					"type": "constructor"
				},
				{
					"inputs": [
						{
							"components": [
								{
									"internalType": "string",
									"name": "message",
									"type": "string"
								},
								{
									"internalType": "uint256",
									"name": "value",
									"type": "uint256"
								},
								{
									"internalType": "address",
									"name": "from",
									"type": "address"
								},
								{
									"internalType": "address",
									"name": "to",
									"type": "address"
								}
							],
							"internalType": "struct ExampleMessage",
							"name": "message",
							"type": "tuple"
						},
						{
							"internalType": "uint8",
							"name": "v",
							"type": "uint8"
						},
						{
							"internalType": "bytes32",
							"name": "r",
							"type": "bytes32"
						},
						{
							"internalType": "bytes32",
							"name": "s",
							"type": "bytes32"
						}
					],
					"name": "verifyMessage",
					"outputs": [
						{
							"internalType": "bool",
							"name": "",
							"type": "bool"
						}
					],
					"stateMutability": "view",
					"type": "function"
				}
			],
			"devdoc": {
				"kind": "dev",
				"methods": {},
				"version": 1
			},
			"evm": {
				"assembly": "    /* \"contracts/1_eip712.sol\":363:2138  contract EIP712Example {... */\n  mstore(0x40, 0x80)\n    /* \"contracts/1_eip712.sol\":555:799  constructor() {... */\n  callvalue\n  dup1\n  iszero\n  tag_1\n  jumpi\n  0x00\n  dup1\n  revert\ntag_1:\n  pop\n    /* \"contracts/1_eip712.sol\":598:792  hashDomain(EIP712Domain({... */\n  tag_4\n    /* \"contracts/1_eip712.sol\":609:791  EIP712Domain({... */\n  mload(0x40)\n  dup1\n  0xa0\n  add\n  0x40\n  mstore\n  dup1\n  mload(0x40)\n  dup1\n  0x40\n  add\n  0x40\n  mstore\n  dup1\n  0x0d\n  dup2\n  mstore\n  0x20\n  add\n  0x4549503731324578616d706c6500000000000000000000000000000000000000\n  dup2\n  mstore\n  pop\n  dup2\n  mstore\n  0x20\n  add\n  mload(0x40)\n  dup1\n  0x40\n  add\n  0x40\n  mstore\n  dup1\n  0x01\n  dup2\n  mstore\n  0x20\n  add\n  0x3100000000000000000000000000000000000000000000000000000000000000\n  dup2\n  mstore\n  pop\n  dup2\n  mstore\n  0x20\n  add\n    /* \"contracts/1_eip712.sol\":706:710  5777 */\n  0x1691\n    /* \"contracts/1_eip712.sol\":609:791  EIP712Domain({... */\n  dup2\n  mstore\n  0x20\n  add\n    /* \"contracts/1_eip712.sol\":751:755  this */\n  address\n    /* \"contracts/1_eip712.sol\":609:791  EIP712Domain({... */\n  0xffffffffffffffffffffffffffffffffffffffff\n  and\n  dup2\n  mstore\n  0x20\n  add\n    /* \"contracts/1_eip712.sol\":776:780  SALT */\n  0x70736575646f2d74657874000000000000000000000000000000000000000000\n    /* \"contracts/1_eip712.sol\":609:791  EIP712Domain({... */\n  dup2\n  mstore\n  pop\n    /* \"contracts/1_eip712.sol\":598:608  hashDomain */\n  shl(0x20, tag_5)\n    /* \"contracts/1_eip712.sol\":598:792  hashDomain(EIP712Domain({... */\n  0x20\n  shr\n  jump\t// in\ntag_4:\n    /* \"contracts/1_eip712.sol\":579:595  DOMAIN_SEPARATOR */\n  0x00\n    /* \"contracts/1_eip712.sol\":579:792  DOMAIN_SEPARATOR = hashDomain(EIP712Domain({... */\n  dup2\n  swap1\n  sstore\n  pop\n    /* \"contracts/1_eip712.sol\":363:2138  contract EIP712Example {... */\n  jump(tag_6)\n    /* \"contracts/1_eip712.sol\":854:1290  function hashDomain(EIP712Domain memory domain) private pure returns (bytes32) {... */\ntag_5:\n    /* \"contracts/1_eip712.sol\":924:931  bytes32 */\n  0x00\n    /* \"contracts/1_eip712.sol\":984:1092  keccak256(\"EIP712Domain(string name,string version,uint256 chainId,address verifyingContract,bytes32 salt)\") */\n  0xd87cd6ef79d4e2b95e15ce8abf732db51ec771f1ca2edccf22a46c729ac56472\n    /* \"contracts/1_eip712.sol\":1122:1128  domain */\n  dup3\n    /* \"contracts/1_eip712.sol\":1122:1133  domain.name */\n  0x00\n  add\n  mload\n    /* \"contracts/1_eip712.sol\":1106:1135  keccak256(bytes(domain.name)) */\n  dup1\n  mload\n  swap1\n  0x20\n  add\n  keccak256\n    /* \"contracts/1_eip712.sol\":1165:1171  domain */\n  dup4\n    /* \"contracts/1_eip712.sol\":1165:1179  domain.version */\n  0x20\n  add\n  mload\n    /* \"contracts/1_eip712.sol\":1149:1181  keccak256(bytes(domain.version)) */\n  dup1\n  mload\n  swap1\n  0x20\n  add\n  keccak256\n    /* \"contracts/1_eip712.sol\":1195:1201  domain */\n  dup5\n    /* \"contracts/1_eip712.sol\":1195:1209  domain.chainId */\n  0x40\n  add\n  mload\n    /* \"contracts/1_eip712.sol\":1223:1229  domain */\n  dup6\n    /* \"contracts/1_eip712.sol\":1223:1247  domain.verifyingContract */\n  0x60\n  add\n  mload\n    /* \"contracts/1_eip712.sol\":1261:1267  domain */\n  dup7\n    /* \"contracts/1_eip712.sol\":1261:1272  domain.salt */\n  0x80\n  add\n  mload\n    /* \"contracts/1_eip712.sol\":960:1282  abi.encode(... */\n  add(0x20, mload(0x40))\n  tag_8\n  swap7\n  swap6\n  swap5\n  swap4\n  swap3\n  swap2\n  swap1\n  tag_9\n  jump\t// in\ntag_8:\n  mload(0x40)\n  0x20\n  dup2\n  dup4\n  sub\n  sub\n  dup2\n  mstore\n  swap1\n  0x40\n  mstore\n    /* \"contracts/1_eip712.sol\":950:1283  keccak256(abi.encode(... */\n  dup1\n  mload\n  swap1\n  0x20\n  add\n  keccak256\n    /* \"contracts/1_eip712.sol\":943:1283  return keccak256(abi.encode(... */\n  swap1\n  pop\n    /* \"contracts/1_eip712.sol\":854:1290  function hashDomain(EIP712Domain memory domain) private pure returns (bytes32) {... */\n  swap2\n  swap1\n  pop\n  jump\t// out\n    /* \"#utility.yul\":7:125   */\ntag_11:\n    /* \"#utility.yul\":94:118   */\n  tag_13\n    /* \"#utility.yul\":112:117   */\n  dup2\n    /* \"#utility.yul\":94:118   */\n  tag_14\n  jump\t// in\ntag_13:\n    /* \"#utility.yul\":89:92   */\n  dup3\n    /* \"#utility.yul\":82:119   */\n  mstore\n    /* \"#utility.yul\":72:125   */\n  pop\n  pop\n  jump\t// out\n    /* \"#utility.yul\":131:249   */\ntag_15:\n    /* \"#utility.yul\":218:242   */\n  tag_17\n    /* \"#utility.yul\":236:241   */\n  dup2\n    /* \"#utility.yul\":218:242   */\n  tag_18\n  jump\t// in\ntag_17:\n    /* \"#utility.yul\":213:216   */\n  dup3\n    /* \"#utility.yul\":206:243   */\n  mstore\n    /* \"#utility.yul\":196:249   */\n  pop\n  pop\n  jump\t// out\n    /* \"#utility.yul\":255:373   */\ntag_19:\n    /* \"#utility.yul\":342:366   */\n  tag_21\n    /* \"#utility.yul\":360:365   */\n  dup2\n    /* \"#utility.yul\":342:366   */\n  tag_22\n  jump\t// in\ntag_21:\n    /* \"#utility.yul\":337:340   */\n  dup3\n    /* \"#utility.yul\":330:367   */\n  mstore\n    /* \"#utility.yul\":320:373   */\n  pop\n  pop\n  jump\t// out\n    /* \"#utility.yul\":379:1154   */\ntag_9:\n  0x00\n    /* \"#utility.yul\":650:653   */\n  0xc0\n    /* \"#utility.yul\":639:648   */\n  dup3\n    /* \"#utility.yul\":635:654   */\n  add\n    /* \"#utility.yul\":627:654   */\n  swap1\n  pop\n    /* \"#utility.yul\":664:735   */\n  tag_24\n    /* \"#utility.yul\":732:733   */\n  0x00\n    /* \"#utility.yul\":721:730   */\n  dup4\n    /* \"#utility.yul\":717:734   */\n  add\n    /* \"#utility.yul\":708:714   */\n  dup10\n    /* \"#utility.yul\":664:735   */\n  tag_15\n  jump\t// in\ntag_24:\n    /* \"#utility.yul\":745:817   */\n  tag_25\n    /* \"#utility.yul\":813:815   */\n  0x20\n    /* \"#utility.yul\":802:811   */\n  dup4\n    /* \"#utility.yul\":798:816   */\n  add\n    /* \"#utility.yul\":789:795   */\n  dup9\n    /* \"#utility.yul\":745:817   */\n  tag_15\n  jump\t// in\ntag_25:\n    /* \"#utility.yul\":827:899   */\n  tag_26\n    /* \"#utility.yul\":895:897   */\n  0x40\n    /* \"#utility.yul\":884:893   */\n  dup4\n    /* \"#utility.yul\":880:898   */\n  add\n    /* \"#utility.yul\":871:877   */\n  dup8\n    /* \"#utility.yul\":827:899   */\n  tag_15\n  jump\t// in\ntag_26:\n    /* \"#utility.yul\":909:981   */\n  tag_27\n    /* \"#utility.yul\":977:979   */\n  0x60\n    /* \"#utility.yul\":966:975   */\n  dup4\n    /* \"#utility.yul\":962:980   */\n  add\n    /* \"#utility.yul\":953:959   */\n  dup7\n    /* \"#utility.yul\":909:981   */\n  tag_19\n  jump\t// in\ntag_27:\n    /* \"#utility.yul\":991:1064   */\n  tag_28\n    /* \"#utility.yul\":1059:1062   */\n  0x80\n    /* \"#utility.yul\":1048:1057   */\n  dup4\n    /* \"#utility.yul\":1044:1063   */\n  add\n    /* \"#utility.yul\":1035:1041   */\n  dup6\n    /* \"#utility.yul\":991:1064   */\n  tag_11\n  jump\t// in\ntag_28:\n    /* \"#utility.yul\":1074:1147   */\n  tag_29\n    /* \"#utility.yul\":1142:1145   */\n  0xa0\n    /* \"#utility.yul\":1131:1140   */\n  dup4\n    /* \"#utility.yul\":1127:1146   */\n  add\n    /* \"#utility.yul\":1118:1124   */\n  dup5\n    /* \"#utility.yul\":1074:1147   */\n  tag_15\n  jump\t// in\ntag_29:\n    /* \"#utility.yul\":617:1154   */\n  swap8\n  swap7\n  pop\n  pop\n  pop\n  pop\n  pop\n  pop\n  pop\n  jump\t// out\n    /* \"#utility.yul\":1160:1256   */\ntag_14:\n  0x00\n    /* \"#utility.yul\":1226:1250   */\n  tag_31\n    /* \"#utility.yul\":1244:1249   */\n  dup3\n    /* \"#utility.yul\":1226:1250   */\n  tag_32\n  jump\t// in\ntag_31:\n    /* \"#utility.yul\":1215:1250   */\n  swap1\n  pop\n    /* \"#utility.yul\":1205:1256   */\n  swap2\n  swap1\n  pop\n  jump\t// out\n    /* \"#utility.yul\":1262:1339   */\ntag_18:\n  0x00\n    /* \"#utility.yul\":1328:1333   */\n  dup2\n    /* \"#utility.yul\":1317:1333   */\n  swap1\n  pop\n    /* \"#utility.yul\":1307:1339   */\n  swap2\n  swap1\n  pop\n  jump\t// out\n    /* \"#utility.yul\":1345:1471   */\ntag_32:\n  0x00\n    /* \"#utility.yul\":1422:1464   */\n  0xffffffffffffffffffffffffffffffffffffffff\n    /* \"#utility.yul\":1415:1420   */\n  dup3\n    /* \"#utility.yul\":1411:1465   */\n  and\n    /* \"#utility.yul\":1400:1465   */\n  swap1\n  pop\n    /* \"#utility.yul\":1390:1471   */\n  swap2\n  swap1\n  pop\n  jump\t// out\n    /* \"#utility.yul\":1477:1554   */\ntag_22:\n  0x00\n    /* \"#utility.yul\":1543:1548   */\n  dup2\n    /* \"#utility.yul\":1532:1548   */\n  swap1\n  pop\n    /* \"#utility.yul\":1522:1554   */\n  swap2\n  swap1\n  pop\n  jump\t// out\n    /* \"contracts/1_eip712.sol\":363:2138  contract EIP712Example {... */\ntag_6:\n  dataSize(sub_0)\n  dup1\n  dataOffset(sub_0)\n  0x00\n  codecopy\n  0x00\n  return\nstop\n\nsub_0: assembly {\n        /* \"contracts/1_eip712.sol\":363:2138  contract EIP712Example {... */\n      mstore(0x40, 0x80)\n      callvalue\n      dup1\n      iszero\n      tag_1\n      jumpi\n      0x00\n      dup1\n      revert\n    tag_1:\n      pop\n      jumpi(tag_2, lt(calldatasize, 0x04))\n      shr(0xe0, calldataload(0x00))\n      dup1\n      0x9fd7124e\n      eq\n      tag_3\n      jumpi\n    tag_2:\n      0x00\n      dup1\n      revert\n        /* \"contracts/1_eip712.sol\":1749:2136  function verifyMessage(ExampleMessage memory message, uint8 v, bytes32 r, bytes32 s) public view returns (bool) {... */\n    tag_3:\n      tag_4\n      0x04\n      dup1\n      calldatasize\n      sub\n      dup2\n      add\n      swap1\n      tag_5\n      swap2\n      swap1\n      tag_6\n      jump\t// in\n    tag_5:\n      tag_7\n      jump\t// in\n    tag_4:\n      mload(0x40)\n      tag_8\n      swap2\n      swap1\n      tag_9\n      jump\t// in\n    tag_8:\n      mload(0x40)\n      dup1\n      swap2\n      sub\n      swap1\n      return\n    tag_7:\n        /* \"contracts/1_eip712.sol\":1855:1859  bool */\n      0x00\n        /* \"contracts/1_eip712.sol\":1871:1885  bytes32 digest */\n      dup1\n        /* \"contracts/1_eip712.sol\":1952:1968  DOMAIN_SEPARATOR */\n      sload(0x00)\n        /* \"contracts/1_eip712.sol\":1982:2002  hashMessage(message) */\n      tag_11\n        /* \"contracts/1_eip712.sol\":1994:2001  message */\n      dup8\n        /* \"contracts/1_eip712.sol\":1982:1993  hashMessage */\n      tag_12\n        /* \"contracts/1_eip712.sol\":1982:2002  hashMessage(message) */\n      jump\t// in\n    tag_11:\n        /* \"contracts/1_eip712.sol\":1898:2012  abi.encodePacked(... */\n      add(0x20, mload(0x40))\n      tag_13\n      swap3\n      swap2\n      swap1\n      tag_14\n      jump\t// in\n    tag_13:\n      mload(0x40)\n      0x20\n      dup2\n      dup4\n      sub\n      sub\n      dup2\n      mstore\n      swap1\n      0x40\n      mstore\n        /* \"contracts/1_eip712.sol\":1888:2013  keccak256(abi.encodePacked(... */\n      dup1\n      mload\n      swap1\n      0x20\n      add\n      keccak256\n        /* \"contracts/1_eip712.sol\":1871:2013  bytes32 digest = keccak256(abi.encodePacked(... */\n      swap1\n      pop\n        /* \"contracts/1_eip712.sol\":2024:2048  address recoveredAddress */\n      0x00\n        /* \"contracts/1_eip712.sol\":2051:2077  ecrecover(digest, v, r, s) */\n      0x01\n        /* \"contracts/1_eip712.sol\":2061:2067  digest */\n      dup3\n        /* \"contracts/1_eip712.sol\":2069:2070  v */\n      dup8\n        /* \"contracts/1_eip712.sol\":2072:2073  r */\n      dup8\n        /* \"contracts/1_eip712.sol\":2075:2076  s */\n      dup8\n        /* \"contracts/1_eip712.sol\":2051:2077  ecrecover(digest, v, r, s) */\n      mload(0x40)\n      0x00\n      dup2\n      mstore\n      0x20\n      add\n      0x40\n      mstore\n      mload(0x40)\n      tag_15\n      swap5\n      swap4\n      swap3\n      swap2\n      swap1\n      tag_16\n      jump\t// in\n    tag_15:\n      0x20\n      mload(0x40)\n      0x20\n      dup2\n      sub\n      swap1\n      dup1\n      dup5\n      sub\n      swap1\n      dup6\n      gas\n      staticcall\n      iszero\n      dup1\n      iszero\n      tag_18\n      jumpi\n      returndatasize\n      0x00\n      dup1\n      returndatacopy\n      revert(0x00, returndatasize)\n    tag_18:\n      pop\n      pop\n      pop\n      mload(sub(mload(0x40), 0x20))\n        /* \"contracts/1_eip712.sol\":2024:2077  address recoveredAddress = ecrecover(digest, v, r, s) */\n      swap1\n      pop\n        /* \"contracts/1_eip712.sol\":2116:2123  message */\n      dup7\n        /* \"contracts/1_eip712.sol\":2116:2128  message.from */\n      0x40\n      add\n      mload\n        /* \"contracts/1_eip712.sol\":2096:2128  recoveredAddress == message.from */\n      0xffffffffffffffffffffffffffffffffffffffff\n      and\n        /* \"contracts/1_eip712.sol\":2096:2112  recoveredAddress */\n      dup2\n        /* \"contracts/1_eip712.sol\":2096:2128  recoveredAddress == message.from */\n      0xffffffffffffffffffffffffffffffffffffffff\n      and\n      eq\n        /* \"contracts/1_eip712.sol\":2088:2129  return (recoveredAddress == message.from) */\n      swap3\n      pop\n      pop\n      pop\n        /* \"contracts/1_eip712.sol\":1749:2136  function verifyMessage(ExampleMessage memory message, uint8 v, bytes32 r, bytes32 s) public view returns (bool) {... */\n      swap5\n      swap4\n      pop\n      pop\n      pop\n      pop\n      jump\t// out\n        /* \"contracts/1_eip712.sol\":1335:1699  function hashMessage(ExampleMessage memory message) private pure returns (bytes32) {... */\n    tag_12:\n        /* \"contracts/1_eip712.sol\":1409:1416  bytes32 */\n      0x00\n        /* \"contracts/1_eip712.sol\":1479:1556  bytes(\"ExampleMessage(string message,uint256 value,address from,address to)\") */\n      mload(0x40)\n      dup1\n      0x80\n      add\n      0x40\n      mstore\n      dup1\n      0x44\n      dup2\n      mstore\n      0x20\n      add\n      data_ab1d09716015dd330c33c7d36221c0627e8b83dd47502e0891612a8cd91fda2d\n      0x44\n      swap2\n      codecopy\n        /* \"contracts/1_eip712.sol\":1469:1557  keccak256(bytes(\"ExampleMessage(string message,uint256 value,address from,address to)\")) */\n      dup1\n      mload\n      swap1\n      0x20\n      add\n      keccak256\n        /* \"contracts/1_eip712.sol\":1587:1594  message */\n      dup3\n        /* \"contracts/1_eip712.sol\":1587:1602  message.message */\n      0x00\n      add\n      mload\n        /* \"contracts/1_eip712.sol\":1571:1604  keccak256(bytes(message.message)) */\n      dup1\n      mload\n      swap1\n      0x20\n      add\n      keccak256\n        /* \"contracts/1_eip712.sol\":1618:1625  message */\n      dup4\n        /* \"contracts/1_eip712.sol\":1618:1631  message.value */\n      0x20\n      add\n      mload\n        /* \"contracts/1_eip712.sol\":1645:1652  message */\n      dup5\n        /* \"contracts/1_eip712.sol\":1645:1657  message.from */\n      0x40\n      add\n      mload\n        /* \"contracts/1_eip712.sol\":1671:1678  message */\n      dup6\n        /* \"contracts/1_eip712.sol\":1671:1681  message.to */\n      0x60\n      add\n      mload\n        /* \"contracts/1_eip712.sol\":1445:1691  abi.encode(... */\n      add(0x20, mload(0x40))\n      tag_20\n      swap6\n      swap5\n      swap4\n      swap3\n      swap2\n      swap1\n      tag_21\n      jump\t// in\n    tag_20:\n      mload(0x40)\n      0x20\n      dup2\n      dup4\n      sub\n      sub\n      dup2\n      mstore\n      swap1\n      0x40\n      mstore\n        /* \"contracts/1_eip712.sol\":1435:1692  keccak256(abi.encode(... */\n      dup1\n      mload\n      swap1\n      0x20\n      add\n      keccak256\n        /* \"contracts/1_eip712.sol\":1428:1692  return keccak256(abi.encode(... */\n      swap1\n      pop\n        /* \"contracts/1_eip712.sol\":1335:1699  function hashMessage(ExampleMessage memory message) private pure returns (bytes32) {... */\n      swap2\n      swap1\n      pop\n      jump\t// out\n        /* \"#utility.yul\":7:351   */\n    tag_23:\n      0x00\n        /* \"#utility.yul\":110:175   */\n      tag_25\n        /* \"#utility.yul\":125:174   */\n      tag_26\n        /* \"#utility.yul\":167:173   */\n      dup5\n        /* \"#utility.yul\":125:174   */\n      tag_27\n      jump\t// in\n    tag_26:\n        /* \"#utility.yul\":110:175   */\n      tag_28\n      jump\t// in\n    tag_25:\n        /* \"#utility.yul\":101:175   */\n      swap1\n      pop\n        /* \"#utility.yul\":198:204   */\n      dup3\n        /* \"#utility.yul\":191:196   */\n      dup2\n        /* \"#utility.yul\":184:205   */\n      mstore\n        /* \"#utility.yul\":236:240   */\n      0x20\n        /* \"#utility.yul\":229:234   */\n      dup2\n        /* \"#utility.yul\":225:241   */\n      add\n        /* \"#utility.yul\":274:277   */\n      dup5\n        /* \"#utility.yul\":265:271   */\n      dup5\n        /* \"#utility.yul\":260:263   */\n      dup5\n        /* \"#utility.yul\":256:272   */\n      add\n        /* \"#utility.yul\":253:278   */\n      gt\n        /* \"#utility.yul\":250:252   */\n      iszero\n      tag_29\n      jumpi\n        /* \"#utility.yul\":291:292   */\n      0x00\n        /* \"#utility.yul\":288:289   */\n      dup1\n        /* \"#utility.yul\":281:293   */\n      revert\n        /* \"#utility.yul\":250:252   */\n    tag_29:\n        /* \"#utility.yul\":304:345   */\n      tag_30\n        /* \"#utility.yul\":338:344   */\n      dup5\n        /* \"#utility.yul\":333:336   */\n      dup3\n        /* \"#utility.yul\":328:331   */\n      dup6\n        /* \"#utility.yul\":304:345   */\n      tag_31\n      jump\t// in\n    tag_30:\n        /* \"#utility.yul\":91:351   */\n      pop\n      swap4\n      swap3\n      pop\n      pop\n      pop\n      jump\t// out\n        /* \"#utility.yul\":357:496   */\n    tag_32:\n      0x00\n        /* \"#utility.yul\":441:447   */\n      dup2\n        /* \"#utility.yul\":428:448   */\n      calldataload\n        /* \"#utility.yul\":419:448   */\n      swap1\n      pop\n        /* \"#utility.yul\":457:490   */\n      tag_34\n        /* \"#utility.yul\":484:489   */\n      dup2\n        /* \"#utility.yul\":457:490   */\n      tag_35\n      jump\t// in\n    tag_34:\n        /* \"#utility.yul\":409:496   */\n      swap3\n      swap2\n      pop\n      pop\n      jump\t// out\n        /* \"#utility.yul\":502:641   */\n    tag_36:\n      0x00\n        /* \"#utility.yul\":586:592   */\n      dup2\n        /* \"#utility.yul\":573:593   */\n      calldataload\n        /* \"#utility.yul\":564:593   */\n      swap1\n      pop\n        /* \"#utility.yul\":602:635   */\n      tag_38\n        /* \"#utility.yul\":629:634   */\n      dup2\n        /* \"#utility.yul\":602:635   */\n      tag_39\n      jump\t// in\n    tag_38:\n        /* \"#utility.yul\":554:641   */\n      swap3\n      swap2\n      pop\n      pop\n      jump\t// out\n        /* \"#utility.yul\":661:934   */\n    tag_40:\n      0x00\n        /* \"#utility.yul\":766:769   */\n      dup3\n        /* \"#utility.yul\":759:763   */\n      0x1f\n        /* \"#utility.yul\":751:757   */\n      dup4\n        /* \"#utility.yul\":747:764   */\n      add\n        /* \"#utility.yul\":743:770   */\n      slt\n        /* \"#utility.yul\":733:735   */\n      tag_42\n      jumpi\n        /* \"#utility.yul\":784:785   */\n      0x00\n        /* \"#utility.yul\":781:782   */\n      dup1\n        /* \"#utility.yul\":774:786   */\n      revert\n        /* \"#utility.yul\":733:735   */\n    tag_42:\n        /* \"#utility.yul\":824:830   */\n      dup2\n        /* \"#utility.yul\":811:831   */\n      calldataload\n        /* \"#utility.yul\":849:928   */\n      tag_43\n        /* \"#utility.yul\":924:927   */\n      dup5\n        /* \"#utility.yul\":916:922   */\n      dup3\n        /* \"#utility.yul\":909:913   */\n      0x20\n        /* \"#utility.yul\":901:907   */\n      dup7\n        /* \"#utility.yul\":897:914   */\n      add\n        /* \"#utility.yul\":849:928   */\n      tag_23\n      jump\t// in\n    tag_43:\n        /* \"#utility.yul\":840:928   */\n      swap2\n      pop\n        /* \"#utility.yul\":723:934   */\n      pop\n      swap3\n      swap2\n      pop\n      pop\n      jump\t// out\n        /* \"#utility.yul\":969:1907   */\n    tag_44:\n      0x00\n        /* \"#utility.yul\":1092:1096   */\n      0x80\n        /* \"#utility.yul\":1080:1089   */\n      dup3\n        /* \"#utility.yul\":1075:1078   */\n      dup5\n        /* \"#utility.yul\":1071:1090   */\n      sub\n        /* \"#utility.yul\":1067:1097   */\n      slt\n        /* \"#utility.yul\":1064:1066   */\n      iszero\n      tag_46\n      jumpi\n        /* \"#utility.yul\":1110:1111   */\n      0x00\n        /* \"#utility.yul\":1107:1108   */\n      dup1\n        /* \"#utility.yul\":1100:1112   */\n      revert\n        /* \"#utility.yul\":1064:1066   */\n    tag_46:\n        /* \"#utility.yul\":1132:1152   */\n      tag_47\n        /* \"#utility.yul\":1147:1151   */\n      0x80\n        /* \"#utility.yul\":1132:1152   */\n      tag_28\n      jump\t// in\n    tag_47:\n        /* \"#utility.yul\":1123:1152   */\n      swap1\n      pop\n        /* \"#utility.yul\":1242:1243   */\n      0x00\n        /* \"#utility.yul\":1231:1240   */\n      dup3\n        /* \"#utility.yul\":1227:1244   */\n      add\n        /* \"#utility.yul\":1214:1245   */\n      calldataload\n        /* \"#utility.yul\":1272:1290   */\n      0xffffffffffffffff\n        /* \"#utility.yul\":1264:1270   */\n      dup2\n        /* \"#utility.yul\":1261:1291   */\n      gt\n        /* \"#utility.yul\":1258:1260   */\n      iszero\n      tag_48\n      jumpi\n        /* \"#utility.yul\":1304:1305   */\n      0x00\n        /* \"#utility.yul\":1301:1302   */\n      dup1\n        /* \"#utility.yul\":1294:1306   */\n      revert\n        /* \"#utility.yul\":1258:1260   */\n    tag_48:\n        /* \"#utility.yul\":1347:1406   */\n      tag_49\n        /* \"#utility.yul\":1402:1405   */\n      dup5\n        /* \"#utility.yul\":1393:1399   */\n      dup3\n        /* \"#utility.yul\":1382:1391   */\n      dup6\n        /* \"#utility.yul\":1378:1400   */\n      add\n        /* \"#utility.yul\":1347:1406   */\n      tag_40\n      jump\t// in\n    tag_49:\n        /* \"#utility.yul\":1340:1344   */\n      0x00\n        /* \"#utility.yul\":1333:1338   */\n      dup4\n        /* \"#utility.yul\":1329:1345   */\n      add\n        /* \"#utility.yul\":1322:1407   */\n      mstore\n        /* \"#utility.yul\":1162:1418   */\n      pop\n        /* \"#utility.yul\":1478:1480   */\n      0x20\n        /* \"#utility.yul\":1519:1568   */\n      tag_50\n        /* \"#utility.yul\":1564:1567   */\n      dup5\n        /* \"#utility.yul\":1555:1561   */\n      dup3\n        /* \"#utility.yul\":1544:1553   */\n      dup6\n        /* \"#utility.yul\":1540:1562   */\n      add\n        /* \"#utility.yul\":1519:1568   */\n      tag_51\n      jump\t// in\n    tag_50:\n        /* \"#utility.yul\":1512:1516   */\n      0x20\n        /* \"#utility.yul\":1505:1510   */\n      dup4\n        /* \"#utility.yul\":1501:1517   */\n      add\n        /* \"#utility.yul\":1494:1569   */\n      mstore\n        /* \"#utility.yul\":1428:1580   */\n      pop\n        /* \"#utility.yul\":1639:1641   */\n      0x40\n        /* \"#utility.yul\":1680:1729   */\n      tag_52\n        /* \"#utility.yul\":1725:1728   */\n      dup5\n        /* \"#utility.yul\":1716:1722   */\n      dup3\n        /* \"#utility.yul\":1705:1714   */\n      dup6\n        /* \"#utility.yul\":1701:1723   */\n      add\n        /* \"#utility.yul\":1680:1729   */\n      tag_32\n      jump\t// in\n    tag_52:\n        /* \"#utility.yul\":1673:1677   */\n      0x40\n        /* \"#utility.yul\":1666:1671   */\n      dup4\n        /* \"#utility.yul\":1662:1678   */\n      add\n        /* \"#utility.yul\":1655:1730   */\n      mstore\n        /* \"#utility.yul\":1590:1741   */\n      pop\n        /* \"#utility.yul\":1798:1800   */\n      0x60\n        /* \"#utility.yul\":1839:1888   */\n      tag_53\n        /* \"#utility.yul\":1884:1887   */\n      dup5\n        /* \"#utility.yul\":1875:1881   */\n      dup3\n        /* \"#utility.yul\":1864:1873   */\n      dup6\n        /* \"#utility.yul\":1860:1882   */\n      add\n        /* \"#utility.yul\":1839:1888   */\n      tag_32\n      jump\t// in\n    tag_53:\n        /* \"#utility.yul\":1832:1836   */\n      0x60\n        /* \"#utility.yul\":1825:1830   */\n      dup4\n        /* \"#utility.yul\":1821:1837   */\n      add\n        /* \"#utility.yul\":1814:1889   */\n      mstore\n        /* \"#utility.yul\":1751:1900   */\n      pop\n        /* \"#utility.yul\":1054:1907   */\n      swap3\n      swap2\n      pop\n      pop\n      jump\t// out\n        /* \"#utility.yul\":1913:2052   */\n    tag_51:\n      0x00\n        /* \"#utility.yul\":1997:2003   */\n      dup2\n        /* \"#utility.yul\":1984:2004   */\n      calldataload\n        /* \"#utility.yul\":1975:2004   */\n      swap1\n      pop\n        /* \"#utility.yul\":2013:2046   */\n      tag_55\n        /* \"#utility.yul\":2040:2045   */\n      dup2\n        /* \"#utility.yul\":2013:2046   */\n      tag_56\n      jump\t// in\n    tag_55:\n        /* \"#utility.yul\":1965:2052   */\n      swap3\n      swap2\n      pop\n      pop\n      jump\t// out\n        /* \"#utility.yul\":2058:2193   */\n    tag_57:\n      0x00\n        /* \"#utility.yul\":2140:2146   */\n      dup2\n        /* \"#utility.yul\":2127:2147   */\n      calldataload\n        /* \"#utility.yul\":2118:2147   */\n      swap1\n      pop\n        /* \"#utility.yul\":2156:2187   */\n      tag_59\n        /* \"#utility.yul\":2181:2186   */\n      dup2\n        /* \"#utility.yul\":2156:2187   */\n      tag_60\n      jump\t// in\n    tag_59:\n        /* \"#utility.yul\":2108:2193   */\n      swap3\n      swap2\n      pop\n      pop\n      jump\t// out\n        /* \"#utility.yul\":2199:3046   */\n    tag_6:\n      0x00\n      dup1\n      0x00\n      dup1\n        /* \"#utility.yul\":2386:2389   */\n      0x80\n        /* \"#utility.yul\":2374:2383   */\n      dup6\n        /* \"#utility.yul\":2365:2372   */\n      dup8\n        /* \"#utility.yul\":2361:2384   */\n      sub\n        /* \"#utility.yul\":2357:2390   */\n      slt\n        /* \"#utility.yul\":2354:2356   */\n      iszero\n      tag_62\n      jumpi\n        /* \"#utility.yul\":2403:2404   */\n      0x00\n        /* \"#utility.yul\":2400:2401   */\n      dup1\n        /* \"#utility.yul\":2393:2405   */\n      revert\n        /* \"#utility.yul\":2354:2356   */\n    tag_62:\n        /* \"#utility.yul\":2474:2475   */\n      0x00\n        /* \"#utility.yul\":2463:2472   */\n      dup6\n        /* \"#utility.yul\":2459:2476   */\n      add\n        /* \"#utility.yul\":2446:2477   */\n      calldataload\n        /* \"#utility.yul\":2504:2522   */\n      0xffffffffffffffff\n        /* \"#utility.yul\":2496:2502   */\n      dup2\n        /* \"#utility.yul\":2493:2523   */\n      gt\n        /* \"#utility.yul\":2490:2492   */\n      iszero\n      tag_63\n      jumpi\n        /* \"#utility.yul\":2536:2537   */\n      0x00\n        /* \"#utility.yul\":2533:2534   */\n      dup1\n        /* \"#utility.yul\":2526:2538   */\n      revert\n        /* \"#utility.yul\":2490:2492   */\n    tag_63:\n        /* \"#utility.yul\":2564:2647   */\n      tag_64\n        /* \"#utility.yul\":2639:2646   */\n      dup8\n        /* \"#utility.yul\":2630:2636   */\n      dup3\n        /* \"#utility.yul\":2619:2628   */\n      dup9\n        /* \"#utility.yul\":2615:2637   */\n      add\n        /* \"#utility.yul\":2564:2647   */\n      tag_44\n      jump\t// in\n    tag_64:\n        /* \"#utility.yul\":2554:2647   */\n      swap5\n      pop\n        /* \"#utility.yul\":2417:2657   */\n      pop\n        /* \"#utility.yul\":2696:2698   */\n      0x20\n        /* \"#utility.yul\":2722:2773   */\n      tag_65\n        /* \"#utility.yul\":2765:2772   */\n      dup8\n        /* \"#utility.yul\":2756:2762   */\n      dup3\n        /* \"#utility.yul\":2745:2754   */\n      dup9\n        /* \"#utility.yul\":2741:2763   */\n      add\n        /* \"#utility.yul\":2722:2773   */\n      tag_57\n      jump\t// in\n    tag_65:\n        /* \"#utility.yul\":2712:2773   */\n      swap4\n      pop\n        /* \"#utility.yul\":2667:2783   */\n      pop\n        /* \"#utility.yul\":2822:2824   */\n      0x40\n        /* \"#utility.yul\":2848:2901   */\n      tag_66\n        /* \"#utility.yul\":2893:2900   */\n      dup8\n        /* \"#utility.yul\":2884:2890   */\n      dup3\n        /* \"#utility.yul\":2873:2882   */\n      dup9\n        /* \"#utility.yul\":2869:2891   */\n      add\n        /* \"#utility.yul\":2848:2901   */\n      tag_36\n      jump\t// in\n    tag_66:\n        /* \"#utility.yul\":2838:2901   */\n      swap3\n      pop\n        /* \"#utility.yul\":2793:2911   */\n      pop\n        /* \"#utility.yul\":2950:2952   */\n      0x60\n        /* \"#utility.yul\":2976:3029   */\n      tag_67\n        /* \"#utility.yul\":3021:3028   */\n      dup8\n        /* \"#utility.yul\":3012:3018   */\n      dup3\n        /* \"#utility.yul\":3001:3010   */\n      dup9\n        /* \"#utility.yul\":2997:3019   */\n      add\n        /* \"#utility.yul\":2976:3029   */\n      tag_36\n      jump\t// in\n    tag_67:\n        /* \"#utility.yul\":2966:3029   */\n      swap2\n      pop\n        /* \"#utility.yul\":2921:3039   */\n      pop\n        /* \"#utility.yul\":2344:3046   */\n      swap3\n      swap6\n      swap2\n      swap5\n      pop\n      swap3\n      pop\n      jump\t// out\n        /* \"#utility.yul\":3052:3170   */\n    tag_68:\n        /* \"#utility.yul\":3139:3163   */\n      tag_70\n        /* \"#utility.yul\":3157:3162   */\n      dup2\n        /* \"#utility.yul\":3139:3163   */\n      tag_71\n      jump\t// in\n    tag_70:\n        /* \"#utility.yul\":3134:3137   */\n      dup3\n        /* \"#utility.yul\":3127:3164   */\n      mstore\n        /* \"#utility.yul\":3117:3170   */\n      pop\n      pop\n      jump\t// out\n        /* \"#utility.yul\":3176:3285   */\n    tag_72:\n        /* \"#utility.yul\":3257:3278   */\n      tag_74\n        /* \"#utility.yul\":3272:3277   */\n      dup2\n        /* \"#utility.yul\":3257:3278   */\n      tag_75\n      jump\t// in\n    tag_74:\n        /* \"#utility.yul\":3252:3255   */\n      dup3\n        /* \"#utility.yul\":3245:3279   */\n      mstore\n        /* \"#utility.yul\":3235:3285   */\n      pop\n      pop\n      jump\t// out\n        /* \"#utility.yul\":3291:3409   */\n    tag_76:\n        /* \"#utility.yul\":3378:3402   */\n      tag_78\n        /* \"#utility.yul\":3396:3401   */\n      dup2\n        /* \"#utility.yul\":3378:3402   */\n      tag_79\n      jump\t// in\n    tag_78:\n        /* \"#utility.yul\":3373:3376   */\n      dup3\n        /* \"#utility.yul\":3366:3403   */\n      mstore\n        /* \"#utility.yul\":3356:3409   */\n      pop\n      pop\n      jump\t// out\n        /* \"#utility.yul\":3415:3572   */\n    tag_80:\n        /* \"#utility.yul\":3520:3565   */\n      tag_82\n        /* \"#utility.yul\":3540:3564   */\n      tag_83\n        /* \"#utility.yul\":3558:3563   */\n      dup3\n        /* \"#utility.yul\":3540:3564   */\n      tag_79\n      jump\t// in\n    tag_83:\n        /* \"#utility.yul\":3520:3565   */\n      tag_84\n      jump\t// in\n    tag_82:\n        /* \"#utility.yul\":3515:3518   */\n      dup3\n        /* \"#utility.yul\":3508:3566   */\n      mstore\n        /* \"#utility.yul\":3498:3572   */\n      pop\n      pop\n      jump\t// out\n        /* \"#utility.yul\":3578:3974   */\n    tag_85:\n      0x00\n        /* \"#utility.yul\":3759:3843   */\n      tag_87\n        /* \"#utility.yul\":3841:3842   */\n      0x02\n        /* \"#utility.yul\":3836:3839   */\n      dup4\n        /* \"#utility.yul\":3759:3843   */\n      tag_88\n      jump\t// in\n    tag_87:\n        /* \"#utility.yul\":3752:3843   */\n      swap2\n      pop\n        /* \"#utility.yul\":3873:3939   */\n      0x1901000000000000000000000000000000000000000000000000000000000000\n        /* \"#utility.yul\":3869:3870   */\n      0x00\n        /* \"#utility.yul\":3864:3867   */\n      dup4\n        /* \"#utility.yul\":3860:3871   */\n      add\n        /* \"#utility.yul\":3853:3940   */\n      mstore\n        /* \"#utility.yul\":3966:3967   */\n      0x02\n        /* \"#utility.yul\":3961:3964   */\n      dup3\n        /* \"#utility.yul\":3957:3968   */\n      add\n        /* \"#utility.yul\":3950:3968   */\n      swap1\n      pop\n        /* \"#utility.yul\":3742:3974   */\n      swap2\n      swap1\n      pop\n      jump\t// out\n        /* \"#utility.yul\":3980:4098   */\n    tag_89:\n        /* \"#utility.yul\":4067:4091   */\n      tag_91\n        /* \"#utility.yul\":4085:4090   */\n      dup2\n        /* \"#utility.yul\":4067:4091   */\n      tag_92\n      jump\t// in\n    tag_91:\n        /* \"#utility.yul\":4062:4065   */\n      dup3\n        /* \"#utility.yul\":4055:4092   */\n      mstore\n        /* \"#utility.yul\":4045:4098   */\n      pop\n      pop\n      jump\t// out\n        /* \"#utility.yul\":4104:4216   */\n    tag_93:\n        /* \"#utility.yul\":4187:4209   */\n      tag_95\n        /* \"#utility.yul\":4203:4208   */\n      dup2\n        /* \"#utility.yul\":4187:4209   */\n      tag_96\n      jump\t// in\n    tag_95:\n        /* \"#utility.yul\":4182:4185   */\n      dup3\n        /* \"#utility.yul\":4175:4210   */\n      mstore\n        /* \"#utility.yul\":4165:4216   */\n      pop\n      pop\n      jump\t// out\n        /* \"#utility.yul\":4222:4885   */\n    tag_14:\n      0x00\n        /* \"#utility.yul\":4485:4633   */\n      tag_98\n        /* \"#utility.yul\":4629:4632   */\n      dup3\n        /* \"#utility.yul\":4485:4633   */\n      tag_85\n      jump\t// in\n    tag_98:\n        /* \"#utility.yul\":4478:4633   */\n      swap2\n      pop\n        /* \"#utility.yul\":4643:4718   */\n      tag_99\n        /* \"#utility.yul\":4714:4717   */\n      dup3\n        /* \"#utility.yul\":4705:4711   */\n      dup6\n        /* \"#utility.yul\":4643:4718   */\n      tag_80\n      jump\t// in\n    tag_99:\n        /* \"#utility.yul\":4743:4745   */\n      0x20\n        /* \"#utility.yul\":4738:4741   */\n      dup3\n        /* \"#utility.yul\":4734:4746   */\n      add\n        /* \"#utility.yul\":4727:4746   */\n      swap2\n      pop\n        /* \"#utility.yul\":4756:4831   */\n      tag_100\n        /* \"#utility.yul\":4827:4830   */\n      dup3\n        /* \"#utility.yul\":4818:4824   */\n      dup5\n        /* \"#utility.yul\":4756:4831   */\n      tag_80\n      jump\t// in\n    tag_100:\n        /* \"#utility.yul\":4856:4858   */\n      0x20\n        /* \"#utility.yul\":4851:4854   */\n      dup3\n        /* \"#utility.yul\":4847:4859   */\n      add\n        /* \"#utility.yul\":4840:4859   */\n      swap2\n      pop\n        /* \"#utility.yul\":4876:4879   */\n      dup2\n        /* \"#utility.yul\":4869:4879   */\n      swap1\n      pop\n        /* \"#utility.yul\":4467:4885   */\n      swap4\n      swap3\n      pop\n      pop\n      pop\n      jump\t// out\n        /* \"#utility.yul\":4891:5101   */\n    tag_9:\n      0x00\n        /* \"#utility.yul\":5016:5018   */\n      0x20\n        /* \"#utility.yul\":5005:5014   */\n      dup3\n        /* \"#utility.yul\":5001:5019   */\n      add\n        /* \"#utility.yul\":4993:5019   */\n      swap1\n      pop\n        /* \"#utility.yul\":5029:5094   */\n      tag_102\n        /* \"#utility.yul\":5091:5092   */\n      0x00\n        /* \"#utility.yul\":5080:5089   */\n      dup4\n        /* \"#utility.yul\":5076:5093   */\n      add\n        /* \"#utility.yul\":5067:5073   */\n      dup5\n        /* \"#utility.yul\":5029:5094   */\n      tag_72\n      jump\t// in\n    tag_102:\n        /* \"#utility.yul\":4983:5101   */\n      swap3\n      swap2\n      pop\n      pop\n      jump\t// out\n        /* \"#utility.yul\":5107:5771   */\n    tag_21:\n      0x00\n        /* \"#utility.yul\":5350:5353   */\n      0xa0\n        /* \"#utility.yul\":5339:5348   */\n      dup3\n        /* \"#utility.yul\":5335:5354   */\n      add\n        /* \"#utility.yul\":5327:5354   */\n      swap1\n      pop\n        /* \"#utility.yul\":5364:5435   */\n      tag_104\n        /* \"#utility.yul\":5432:5433   */\n      0x00\n        /* \"#utility.yul\":5421:5430   */\n      dup4\n        /* \"#utility.yul\":5417:5434   */\n      add\n        /* \"#utility.yul\":5408:5414   */\n      dup9\n        /* \"#utility.yul\":5364:5435   */\n      tag_76\n      jump\t// in\n    tag_104:\n        /* \"#utility.yul\":5445:5517   */\n      tag_105\n        /* \"#utility.yul\":5513:5515   */\n      0x20\n        /* \"#utility.yul\":5502:5511   */\n      dup4\n        /* \"#utility.yul\":5498:5516   */\n      add\n        /* \"#utility.yul\":5489:5495   */\n      dup8\n        /* \"#utility.yul\":5445:5517   */\n      tag_76\n      jump\t// in\n    tag_105:\n        /* \"#utility.yul\":5527:5599   */\n      tag_106\n        /* \"#utility.yul\":5595:5597   */\n      0x40\n        /* \"#utility.yul\":5584:5593   */\n      dup4\n        /* \"#utility.yul\":5580:5598   */\n      add\n        /* \"#utility.yul\":5571:5577   */\n      dup7\n        /* \"#utility.yul\":5527:5599   */\n      tag_89\n      jump\t// in\n    tag_106:\n        /* \"#utility.yul\":5609:5681   */\n      tag_107\n        /* \"#utility.yul\":5677:5679   */\n      0x60\n        /* \"#utility.yul\":5666:5675   */\n      dup4\n        /* \"#utility.yul\":5662:5680   */\n      add\n        /* \"#utility.yul\":5653:5659   */\n      dup6\n        /* \"#utility.yul\":5609:5681   */\n      tag_68\n      jump\t// in\n    tag_107:\n        /* \"#utility.yul\":5691:5764   */\n      tag_108\n        /* \"#utility.yul\":5759:5762   */\n      0x80\n        /* \"#utility.yul\":5748:5757   */\n      dup4\n        /* \"#utility.yul\":5744:5763   */\n      add\n        /* \"#utility.yul\":5735:5741   */\n      dup5\n        /* \"#utility.yul\":5691:5764   */\n      tag_68\n      jump\t// in\n    tag_108:\n        /* \"#utility.yul\":5317:5771   */\n      swap7\n      swap6\n      pop\n      pop\n      pop\n      pop\n      pop\n      pop\n      jump\t// out\n        /* \"#utility.yul\":5777:6322   */\n    tag_16:\n      0x00\n        /* \"#utility.yul\":5988:5991   */\n      0x80\n        /* \"#utility.yul\":5977:5986   */\n      dup3\n        /* \"#utility.yul\":5973:5992   */\n      add\n        /* \"#utility.yul\":5965:5992   */\n      swap1\n      pop\n        /* \"#utility.yul\":6002:6073   */\n      tag_110\n        /* \"#utility.yul\":6070:6071   */\n      0x00\n        /* \"#utility.yul\":6059:6068   */\n      dup4\n        /* \"#utility.yul\":6055:6072   */\n      add\n        /* \"#utility.yul\":6046:6052   */\n      dup8\n        /* \"#utility.yul\":6002:6073   */\n      tag_76\n      jump\t// in\n    tag_110:\n        /* \"#utility.yul\":6083:6151   */\n      tag_111\n        /* \"#utility.yul\":6147:6149   */\n      0x20\n        /* \"#utility.yul\":6136:6145   */\n      dup4\n        /* \"#utility.yul\":6132:6150   */\n      add\n        /* \"#utility.yul\":6123:6129   */\n      dup7\n        /* \"#utility.yul\":6083:6151   */\n      tag_93\n      jump\t// in\n    tag_111:\n        /* \"#utility.yul\":6161:6233   */\n      tag_112\n        /* \"#utility.yul\":6229:6231   */\n      0x40\n        /* \"#utility.yul\":6218:6227   */\n      dup4\n        /* \"#utility.yul\":6214:6232   */\n      add\n        /* \"#utility.yul\":6205:6211   */\n      dup6\n        /* \"#utility.yul\":6161:6233   */\n      tag_76\n      jump\t// in\n    tag_112:\n        /* \"#utility.yul\":6243:6315   */\n      tag_113\n        /* \"#utility.yul\":6311:6313   */\n      0x60\n        /* \"#utility.yul\":6300:6309   */\n      dup4\n        /* \"#utility.yul\":6296:6314   */\n      add\n        /* \"#utility.yul\":6287:6293   */\n      dup5\n        /* \"#utility.yul\":6243:6315   */\n      tag_76\n      jump\t// in\n    tag_113:\n        /* \"#utility.yul\":5955:6322   */\n      swap6\n      swap5\n      pop\n      pop\n      pop\n      pop\n      pop\n      jump\t// out\n        /* \"#utility.yul\":6328:6606   */\n    tag_28:\n      0x00\n        /* \"#utility.yul\":6394:6396   */\n      0x40\n        /* \"#utility.yul\":6388:6397   */\n      mload\n        /* \"#utility.yul\":6378:6397   */\n      swap1\n      pop\n        /* \"#utility.yul\":6436:6440   */\n      dup2\n        /* \"#utility.yul\":6428:6434   */\n      dup2\n        /* \"#utility.yul\":6424:6441   */\n      add\n        /* \"#utility.yul\":6543:6549   */\n      dup2\n        /* \"#utility.yul\":6531:6541   */\n      dup2\n        /* \"#utility.yul\":6528:6550   */\n      lt\n        /* \"#utility.yul\":6507:6525   */\n      0xffffffffffffffff\n        /* \"#utility.yul\":6495:6505   */\n      dup3\n        /* \"#utility.yul\":6492:6526   */\n      gt\n        /* \"#utility.yul\":6489:6551   */\n      or\n        /* \"#utility.yul\":6486:6488   */\n      iszero\n      tag_115\n      jumpi\n        /* \"#utility.yul\":6554:6567   */\n      tag_116\n      tag_117\n      jump\t// in\n    tag_116:\n        /* \"#utility.yul\":6486:6488   */\n    tag_115:\n        /* \"#utility.yul\":6589:6599   */\n      dup1\n        /* \"#utility.yul\":6585:6587   */\n      0x40\n        /* \"#utility.yul\":6578:6600   */\n      mstore\n        /* \"#utility.yul\":6368:6606   */\n      pop\n      swap2\n      swap1\n      pop\n      jump\t// out\n        /* \"#utility.yul\":6612:6939   */\n    tag_27:\n      0x00\n        /* \"#utility.yul\":6764:6782   */\n      0xffffffffffffffff\n        /* \"#utility.yul\":6756:6762   */\n      dup3\n        /* \"#utility.yul\":6753:6783   */\n      gt\n        /* \"#utility.yul\":6750:6752   */\n      iszero\n      tag_119\n      jumpi\n        /* \"#utility.yul\":6786:6799   */\n      tag_120\n      tag_117\n      jump\t// in\n    tag_120:\n        /* \"#utility.yul\":6750:6752   */\n    tag_119:\n        /* \"#utility.yul\":6866:6870   */\n      0x1f\n        /* \"#utility.yul\":6862:6871   */\n      not\n        /* \"#utility.yul\":6855:6859   */\n      0x1f\n        /* \"#utility.yul\":6847:6853   */\n      dup4\n        /* \"#utility.yul\":6843:6860   */\n      add\n        /* \"#utility.yul\":6839:6872   */\n      and\n        /* \"#utility.yul\":6831:6872   */\n      swap1\n      pop\n        /* \"#utility.yul\":6927:6931   */\n      0x20\n        /* \"#utility.yul\":6921:6925   */\n      dup2\n        /* \"#utility.yul\":6917:6932   */\n      add\n        /* \"#utility.yul\":6909:6932   */\n      swap1\n      pop\n        /* \"#utility.yul\":6679:6939   */\n      swap2\n      swap1\n      pop\n      jump\t// out\n        /* \"#utility.yul\":6945:7093   */\n    tag_88:\n      0x00\n        /* \"#utility.yul\":7084:7087   */\n      dup2\n        /* \"#utility.yul\":7069:7087   */\n      swap1\n      pop\n        /* \"#utility.yul\":7059:7093   */\n      swap3\n      swap2\n      pop\n      pop\n      jump\t// out\n        /* \"#utility.yul\":7099:7195   */\n    tag_71:\n      0x00\n        /* \"#utility.yul\":7165:7189   */\n      tag_123\n        /* \"#utility.yul\":7183:7188   */\n      dup3\n        /* \"#utility.yul\":7165:7189   */\n      tag_124\n      jump\t// in\n    tag_123:\n        /* \"#utility.yul\":7154:7189   */\n      swap1\n      pop\n        /* \"#utility.yul\":7144:7195   */\n      swap2\n      swap1\n      pop\n      jump\t// out\n        /* \"#utility.yul\":7201:7291   */\n    tag_75:\n      0x00\n        /* \"#utility.yul\":7278:7283   */\n      dup2\n        /* \"#utility.yul\":7271:7284   */\n      iszero\n        /* \"#utility.yul\":7264:7285   */\n      iszero\n        /* \"#utility.yul\":7253:7285   */\n      swap1\n      pop\n        /* \"#utility.yul\":7243:7291   */\n      swap2\n      swap1\n      pop\n      jump\t// out\n        /* \"#utility.yul\":7297:7374   */\n    tag_79:\n      0x00\n        /* \"#utility.yul\":7363:7368   */\n      dup2\n        /* \"#utility.yul\":7352:7368   */\n      swap1\n      pop\n        /* \"#utility.yul\":7342:7374   */\n      swap2\n      swap1\n      pop\n      jump\t// out\n        /* \"#utility.yul\":7380:7506   */\n    tag_124:\n      0x00\n        /* \"#utility.yul\":7457:7499   */\n      0xffffffffffffffffffffffffffffffffffffffff\n        /* \"#utility.yul\":7450:7455   */\n      dup3\n        /* \"#utility.yul\":7446:7500   */\n      and\n        /* \"#utility.yul\":7435:7500   */\n      swap1\n      pop\n        /* \"#utility.yul\":7425:7506   */\n      swap2\n      swap1\n      pop\n      jump\t// out\n        /* \"#utility.yul\":7512:7589   */\n    tag_92:\n      0x00\n        /* \"#utility.yul\":7578:7583   */\n      dup2\n        /* \"#utility.yul\":7567:7583   */\n      swap1\n      pop\n        /* \"#utility.yul\":7557:7589   */\n      swap2\n      swap1\n      pop\n      jump\t// out\n        /* \"#utility.yul\":7595:7681   */\n    tag_96:\n      0x00\n        /* \"#utility.yul\":7670:7674   */\n      0xff\n        /* \"#utility.yul\":7663:7668   */\n      dup3\n        /* \"#utility.yul\":7659:7675   */\n      and\n        /* \"#utility.yul\":7648:7675   */\n      swap1\n      pop\n        /* \"#utility.yul\":7638:7681   */\n      swap2\n      swap1\n      pop\n      jump\t// out\n        /* \"#utility.yul\":7687:7841   */\n    tag_31:\n        /* \"#utility.yul\":7771:7777   */\n      dup3\n        /* \"#utility.yul\":7766:7769   */\n      dup2\n        /* \"#utility.yul\":7761:7764   */\n      dup4\n        /* \"#utility.yul\":7748:7778   */\n      calldatacopy\n        /* \"#utility.yul\":7833:7834   */\n      0x00\n        /* \"#utility.yul\":7824:7830   */\n      dup4\n        /* \"#utility.yul\":7819:7822   */\n      dup4\n        /* \"#utility.yul\":7815:7831   */\n      add\n        /* \"#utility.yul\":7808:7835   */\n      mstore\n        /* \"#utility.yul\":7738:7841   */\n      pop\n      pop\n      pop\n      jump\t// out\n        /* \"#utility.yul\":7847:7926   */\n    tag_84:\n      0x00\n        /* \"#utility.yul\":7915:7920   */\n      dup2\n        /* \"#utility.yul\":7904:7920   */\n      swap1\n      pop\n        /* \"#utility.yul\":7894:7926   */\n      swap2\n      swap1\n      pop\n      jump\t// out\n        /* \"#utility.yul\":7932:7980   */\n    tag_117:\n        /* \"#utility.yul\":7965:7974   */\n      invalid\n        /* \"#utility.yul\":7986:8108   */\n    tag_35:\n        /* \"#utility.yul\":8059:8083   */\n      tag_134\n        /* \"#utility.yul\":8077:8082   */\n      dup2\n        /* \"#utility.yul\":8059:8083   */\n      tag_71\n      jump\t// in\n    tag_134:\n        /* \"#utility.yul\":8052:8057   */\n      dup2\n        /* \"#utility.yul\":8049:8084   */\n      eq\n        /* \"#utility.yul\":8039:8041   */\n      tag_135\n      jumpi\n        /* \"#utility.yul\":8098:8099   */\n      0x00\n        /* \"#utility.yul\":8095:8096   */\n      dup1\n        /* \"#utility.yul\":8088:8100   */\n      revert\n        /* \"#utility.yul\":8039:8041   */\n    tag_135:\n        /* \"#utility.yul\":8029:8108   */\n      pop\n      jump\t// out\n        /* \"#utility.yul\":8114:8236   */\n    tag_39:\n        /* \"#utility.yul\":8187:8211   */\n      tag_137\n        /* \"#utility.yul\":8205:8210   */\n      dup2\n        /* \"#utility.yul\":8187:8211   */\n      tag_79\n      jump\t// in\n    tag_137:\n        /* \"#utility.yul\":8180:8185   */\n      dup2\n        /* \"#utility.yul\":8177:8212   */\n      eq\n        /* \"#utility.yul\":8167:8169   */\n      tag_138\n      jumpi\n        /* \"#utility.yul\":8226:8227   */\n      0x00\n        /* \"#utility.yul\":8223:8224   */\n      dup1\n        /* \"#utility.yul\":8216:8228   */\n      revert\n        /* \"#utility.yul\":8167:8169   */\n    tag_138:\n        /* \"#utility.yul\":8157:8236   */\n      pop\n      jump\t// out\n        /* \"#utility.yul\":8242:8364   */\n    tag_56:\n        /* \"#utility.yul\":8315:8339   */\n      tag_140\n        /* \"#utility.yul\":8333:8338   */\n      dup2\n        /* \"#utility.yul\":8315:8339   */\n      tag_92\n      jump\t// in\n    tag_140:\n        /* \"#utility.yul\":8308:8313   */\n      dup2\n        /* \"#utility.yul\":8305:8340   */\n      eq\n        /* \"#utility.yul\":8295:8297   */\n      tag_141\n      jumpi\n        /* \"#utility.yul\":8354:8355   */\n      0x00\n        /* \"#utility.yul\":8351:8352   */\n      dup1\n        /* \"#utility.yul\":8344:8356   */\n      revert\n        /* \"#utility.yul\":8295:8297   */\n    tag_141:\n        /* \"#utility.yul\":8285:8364   */\n      pop\n      jump\t// out\n        /* \"#utility.yul\":8370:8488   */\n    tag_60:\n        /* \"#utility.yul\":8441:8463   */\n      tag_143\n        /* \"#utility.yul\":8457:8462   */\n      dup2\n        /* \"#utility.yul\":8441:8463   */\n      tag_96\n      jump\t// in\n    tag_143:\n        /* \"#utility.yul\":8434:8439   */\n      dup2\n        /* \"#utility.yul\":8431:8464   */\n      eq\n        /* \"#utility.yul\":8421:8423   */\n      tag_144\n      jumpi\n        /* \"#utility.yul\":8478:8479   */\n      0x00\n        /* \"#utility.yul\":8475:8476   */\n      dup1\n        /* \"#utility.yul\":8468:8480   */\n      revert\n        /* \"#utility.yul\":8421:8423   */\n    tag_144:\n        /* \"#utility.yul\":8411:8488   */\n      pop\n      jump\t// out\n    stop\n    data_ab1d09716015dd330c33c7d36221c0627e8b83dd47502e0891612a8cd91fda2d 4578616d706c654d65737361676528737472696e67206d6573736167652c75696e743235362076616c75652c616464726573732066726f6d2c6164647265737320746f29\n\n    auxdata: 0xa2646970667358221220579362212a1f3bce27d761e0c04122cd9cefa90ff8479fe06dae7fd7ded6798364736f6c63430007060033\n}\n",
				"bytecode": {
					"linkReferences": {},
					"object": "608060405234801561001057600080fd5b506100e86040518060a001604052806040518060400160405280600d81526020017f4549503731324578616d706c650000000000000000000000000000000000000081525081526020016040518060400160405280600181526020017f3100000000000000000000000000000000000000000000000000000000000000815250815260200161169181526020013073ffffffffffffffffffffffffffffffffffffffff1681526020017f70736575646f2d746578740000000000000000000000000000000000000000008152506100f360201b60201c565b600081905550610243565b60007fd87cd6ef79d4e2b95e15ce8abf732db51ec771f1ca2edccf22a46c729ac564728260000151805190602001208360200151805190602001208460400151856060015186608001516040516020016101529695949392919061019c565b604051602081830303815290604052805190602001209050919050565b610178816101fd565b82525050565b6101878161020f565b82525050565b61019681610239565b82525050565b600060c0820190506101b1600083018961017e565b6101be602083018861017e565b6101cb604083018761017e565b6101d8606083018661018d565b6101e5608083018561016f565b6101f260a083018461017e565b979650505050505050565b600061020882610219565b9050919050565b6000819050919050565b600073ffffffffffffffffffffffffffffffffffffffff82169050919050565b6000819050919050565b6106a3806102526000396000f3fe608060405234801561001057600080fd5b506004361061002b5760003560e01c80639fd7124e14610030575b600080fd5b61004a600480360381019061004591906102e0565b610060565b6040516100579190610434565b60405180910390f35b60008060005461006f8761012a565b6040516020016100809291906103fd565b6040516020818303038152906040528051906020012090506000600182878787604051600081526020016040526040516100bd94939291906104a2565b6020604051602081039080840390855afa1580156100df573d6000803e3d6000fd5b505050602060405103519050866040015173ffffffffffffffffffffffffffffffffffffffff168173ffffffffffffffffffffffffffffffffffffffff161492505050949350505050565b600060405180608001604052806044815260200161062a604491398051906020012082600001518051906020012083602001518460400151856060015160405160200161017b95949392919061044f565b604051602081830303815290604052805190602001209050919050565b60006101ab6101a684610518565b6104e7565b9050828152602081018484840111156101c357600080fd5b6101ce8482856105b2565b509392505050565b6000813590506101e5816105cd565b92915050565b6000813590506101fa816105e4565b92915050565b600082601f83011261021157600080fd5b8135610221848260208601610198565b91505092915050565b60006080828403121561023c57600080fd5b61024660806104e7565b9050600082013567ffffffffffffffff81111561026257600080fd5b61026e84828501610200565b6000830152506020610282848285016102b6565b6020830152506040610296848285016101d6565b60408301525060606102aa848285016101d6565b60608301525092915050565b6000813590506102c5816105fb565b92915050565b6000813590506102da81610612565b92915050565b600080600080608085870312156102f657600080fd5b600085013567ffffffffffffffff81111561031057600080fd5b61031c8782880161022a565b945050602061032d878288016102cb565b935050604061033e878288016101eb565b925050606061034f878288016101eb565b91505092959194509250565b61036481610553565b82525050565b61037381610565565b82525050565b61038281610571565b82525050565b61039961039482610571565b6105c1565b82525050565b60006103ac600283610548565b91507f19010000000000000000000000000000000000000000000000000000000000006000830152600282019050919050565b6103e88161059b565b82525050565b6103f7816105a5565b82525050565b60006104088261039f565b91506104148285610388565b6020820191506104248284610388565b6020820191508190509392505050565b6000602082019050610449600083018461036a565b92915050565b600060a0820190506104646000830188610379565b6104716020830187610379565b61047e60408301866103df565b61048b606083018561035b565b610498608083018461035b565b9695505050505050565b60006080820190506104b76000830187610379565b6104c460208301866103ee565b6104d16040830185610379565b6104de6060830184610379565b95945050505050565b6000604051905081810181811067ffffffffffffffff8211171561050e5761050d6105cb565b5b8060405250919050565b600067ffffffffffffffff821115610533576105326105cb565b5b601f19601f8301169050602081019050919050565b600081905092915050565b600061055e8261057b565b9050919050565b60008115159050919050565b6000819050919050565b600073ffffffffffffffffffffffffffffffffffffffff82169050919050565b6000819050919050565b600060ff82169050919050565b82818337600083830152505050565b6000819050919050565bfe5b6105d681610553565b81146105e157600080fd5b50565b6105ed81610571565b81146105f857600080fd5b50565b6106048161059b565b811461060f57600080fd5b50565b61061b816105a5565b811461062657600080fd5b5056fe4578616d706c654d65737361676528737472696e67206d6573736167652c75696e743235362076616c75652c616464726573732066726f6d2c6164647265737320746f29a2646970667358221220579362212a1f3bce27d761e0c04122cd9cefa90ff8479fe06dae7fd7ded6798364736f6c63430007060033",
					"opcodes": "PUSH1 0x80 PUSH1 0x40 MSTORE CALLVALUE DUP1 ISZERO PUSH2 0x10 JUMPI PUSH1 0x0 DUP1 REVERT JUMPDEST POP PUSH2 0xE8 PUSH1 0x40 MLOAD DUP1 PUSH1 0xA0 ADD PUSH1 0x40 MSTORE DUP1 PUSH1 0x40 MLOAD DUP1 PUSH1 0x40 ADD PUSH1 0x40 MSTORE DUP1 PUSH1 0xD DUP2 MSTORE PUSH1 0x20 ADD PUSH32 0x4549503731324578616D706C6500000000000000000000000000000000000000 DUP2 MSTORE POP DUP2 MSTORE PUSH1 0x20 ADD PUSH1 0x40 MLOAD DUP1 PUSH1 0x40 ADD PUSH1 0x40 MSTORE DUP1 PUSH1 0x1 DUP2 MSTORE PUSH1 0x20 ADD PUSH32 0x3100000000000000000000000000000000000000000000000000000000000000 DUP2 MSTORE POP DUP2 MSTORE PUSH1 0x20 ADD PUSH2 0x1691 DUP2 MSTORE PUSH1 0x20 ADD ADDRESS PUSH20 0xFFFFFFFFFFFFFFFFFFFFFFFFFFFFFFFFFFFFFFFF AND DUP2 MSTORE PUSH1 0x20 ADD PUSH32 0x70736575646F2D74657874000000000000000000000000000000000000000000 DUP2 MSTORE POP PUSH2 0xF3 PUSH1 0x20 SHL PUSH1 0x20 SHR JUMP JUMPDEST PUSH1 0x0 DUP2 SWAP1 SSTORE POP PUSH2 0x243 JUMP JUMPDEST PUSH1 0x0 PUSH32 0xD87CD6EF79D4E2B95E15CE8ABF732DB51EC771F1CA2EDCCF22A46C729AC56472 DUP3 PUSH1 0x0 ADD MLOAD DUP1 MLOAD SWAP1 PUSH1 0x20 ADD KECCAK256 DUP4 PUSH1 0x20 ADD MLOAD DUP1 MLOAD SWAP1 PUSH1 0x20 ADD KECCAK256 DUP5 PUSH1 0x40 ADD MLOAD DUP6 PUSH1 0x60 ADD MLOAD DUP7 PUSH1 0x80 ADD MLOAD PUSH1 0x40 MLOAD PUSH1 0x20 ADD PUSH2 0x152 SWAP7 SWAP6 SWAP5 SWAP4 SWAP3 SWAP2 SWAP1 PUSH2 0x19C JUMP JUMPDEST PUSH1 0x40 MLOAD PUSH1 0x20 DUP2 DUP4 SUB SUB DUP2 MSTORE SWAP1 PUSH1 0x40 MSTORE DUP1 MLOAD SWAP1 PUSH1 0x20 ADD KECCAK256 SWAP1 POP SWAP2 SWAP1 POP JUMP JUMPDEST PUSH2 0x178 DUP2 PUSH2 0x1FD JUMP JUMPDEST DUP3 MSTORE POP POP JUMP JUMPDEST PUSH2 0x187 DUP2 PUSH2 0x20F JUMP JUMPDEST DUP3 MSTORE POP POP JUMP JUMPDEST PUSH2 0x196 DUP2 PUSH2 0x239 JUMP JUMPDEST DUP3 MSTORE POP POP JUMP JUMPDEST PUSH1 0x0 PUSH1 0xC0 DUP3 ADD SWAP1 POP PUSH2 0x1B1 PUSH1 0x0 DUP4 ADD DUP10 PUSH2 0x17E JUMP JUMPDEST PUSH2 0x1BE PUSH1 0x20 DUP4 ADD DUP9 PUSH2 0x17E JUMP JUMPDEST PUSH2 0x1CB PUSH1 0x40 DUP4 ADD DUP8 PUSH2 0x17E JUMP JUMPDEST PUSH2 0x1D8 PUSH1 0x60 DUP4 ADD DUP7 PUSH2 0x18D JUMP JUMPDEST PUSH2 0x1E5 PUSH1 0x80 DUP4 ADD DUP6 PUSH2 0x16F JUMP JUMPDEST PUSH2 0x1F2 PUSH1 0xA0 DUP4 ADD DUP5 PUSH2 0x17E JUMP JUMPDEST SWAP8 SWAP7 POP POP POP POP POP POP POP JUMP JUMPDEST PUSH1 0x0 PUSH2 0x208 DUP3 PUSH2 0x219 JUMP JUMPDEST SWAP1 POP SWAP2 SWAP1 POP JUMP JUMPDEST PUSH1 0x0 DUP2 SWAP1 POP SWAP2 SWAP1 POP JUMP JUMPDEST PUSH1 0x0 PUSH20 0xFFFFFFFFFFFFFFFFFFFFFFFFFFFFFFFFFFFFFFFF DUP3 AND SWAP1 POP SWAP2 SWAP1 POP JUMP JUMPDEST PUSH1 0x0 DUP2 SWAP1 POP SWAP2 SWAP1 POP JUMP JUMPDEST PUSH2 0x6A3 DUP1 PUSH2 0x252 PUSH1 0x0 CODECOPY PUSH1 0x0 RETURN INVALID PUSH1 0x80 PUSH1 0x40 MSTORE CALLVALUE DUP1 ISZERO PUSH2 0x10 JUMPI PUSH1 0x0 DUP1 REVERT JUMPDEST POP PUSH1 0x4 CALLDATASIZE LT PUSH2 0x2B JUMPI PUSH1 0x0 CALLDATALOAD PUSH1 0xE0 SHR DUP1 PUSH4 0x9FD7124E EQ PUSH2 0x30 JUMPI JUMPDEST PUSH1 0x0 DUP1 REVERT JUMPDEST PUSH2 0x4A PUSH1 0x4 DUP1 CALLDATASIZE SUB DUP2 ADD SWAP1 PUSH2 0x45 SWAP2 SWAP1 PUSH2 0x2E0 JUMP JUMPDEST PUSH2 0x60 JUMP JUMPDEST PUSH1 0x40 MLOAD PUSH2 0x57 SWAP2 SWAP1 PUSH2 0x434 JUMP JUMPDEST PUSH1 0x40 MLOAD DUP1 SWAP2 SUB SWAP1 RETURN JUMPDEST PUSH1 0x0 DUP1 PUSH1 0x0 SLOAD PUSH2 0x6F DUP8 PUSH2 0x12A JUMP JUMPDEST PUSH1 0x40 MLOAD PUSH1 0x20 ADD PUSH2 0x80 SWAP3 SWAP2 SWAP1 PUSH2 0x3FD JUMP JUMPDEST PUSH1 0x40 MLOAD PUSH1 0x20 DUP2 DUP4 SUB SUB DUP2 MSTORE SWAP1 PUSH1 0x40 MSTORE DUP1 MLOAD SWAP1 PUSH1 0x20 ADD KECCAK256 SWAP1 POP PUSH1 0x0 PUSH1 0x1 DUP3 DUP8 DUP8 DUP8 PUSH1 0x40 MLOAD PUSH1 0x0 DUP2 MSTORE PUSH1 0x20 ADD PUSH1 0x40 MSTORE PUSH1 0x40 MLOAD PUSH2 0xBD SWAP5 SWAP4 SWAP3 SWAP2 SWAP1 PUSH2 0x4A2 JUMP JUMPDEST PUSH1 0x20 PUSH1 0x40 MLOAD PUSH1 0x20 DUP2 SUB SWAP1 DUP1 DUP5 SUB SWAP1 DUP6 GAS STATICCALL ISZERO DUP1 ISZERO PUSH2 0xDF JUMPI RETURNDATASIZE PUSH1 0x0 DUP1 RETURNDATACOPY RETURNDATASIZE PUSH1 0x0 REVERT JUMPDEST POP POP POP PUSH1 0x20 PUSH1 0x40 MLOAD SUB MLOAD SWAP1 POP DUP7 PUSH1 0x40 ADD MLOAD PUSH20 0xFFFFFFFFFFFFFFFFFFFFFFFFFFFFFFFFFFFFFFFF AND DUP2 PUSH20 0xFFFFFFFFFFFFFFFFFFFFFFFFFFFFFFFFFFFFFFFF AND EQ SWAP3 POP POP POP SWAP5 SWAP4 POP POP POP POP JUMP JUMPDEST PUSH1 0x0 PUSH1 0x40 MLOAD DUP1 PUSH1 0x80 ADD PUSH1 0x40 MSTORE DUP1 PUSH1 0x44 DUP2 MSTORE PUSH1 0x20 ADD PUSH2 0x62A PUSH1 0x44 SWAP2 CODECOPY DUP1 MLOAD SWAP1 PUSH1 0x20 ADD KECCAK256 DUP3 PUSH1 0x0 ADD MLOAD DUP1 MLOAD SWAP1 PUSH1 0x20 ADD KECCAK256 DUP4 PUSH1 0x20 ADD MLOAD DUP5 PUSH1 0x40 ADD MLOAD DUP6 PUSH1 0x60 ADD MLOAD PUSH1 0x40 MLOAD PUSH1 0x20 ADD PUSH2 0x17B SWAP6 SWAP5 SWAP4 SWAP3 SWAP2 SWAP1 PUSH2 0x44F JUMP JUMPDEST PUSH1 0x40 MLOAD PUSH1 0x20 DUP2 DUP4 SUB SUB DUP2 MSTORE SWAP1 PUSH1 0x40 MSTORE DUP1 MLOAD SWAP1 PUSH1 0x20 ADD KECCAK256 SWAP1 POP SWAP2 SWAP1 POP JUMP JUMPDEST PUSH1 0x0 PUSH2 0x1AB PUSH2 0x1A6 DUP5 PUSH2 0x518 JUMP JUMPDEST PUSH2 0x4E7 JUMP JUMPDEST SWAP1 POP DUP3 DUP2 MSTORE PUSH1 0x20 DUP2 ADD DUP5 DUP5 DUP5 ADD GT ISZERO PUSH2 0x1C3 JUMPI PUSH1 0x0 DUP1 REVERT JUMPDEST PUSH2 0x1CE DUP5 DUP3 DUP6 PUSH2 0x5B2 JUMP JUMPDEST POP SWAP4 SWAP3 POP POP POP JUMP JUMPDEST PUSH1 0x0 DUP2 CALLDATALOAD SWAP1 POP PUSH2 0x1E5 DUP2 PUSH2 0x5CD JUMP JUMPDEST SWAP3 SWAP2 POP POP JUMP JUMPDEST PUSH1 0x0 DUP2 CALLDATALOAD SWAP1 POP PUSH2 0x1FA DUP2 PUSH2 0x5E4 JUMP JUMPDEST SWAP3 SWAP2 POP POP JUMP JUMPDEST PUSH1 0x0 DUP3 PUSH1 0x1F DUP4 ADD SLT PUSH2 0x211 JUMPI PUSH1 0x0 DUP1 REVERT JUMPDEST DUP2 CALLDATALOAD PUSH2 0x221 DUP5 DUP3 PUSH1 0x20 DUP7 ADD PUSH2 0x198 JUMP JUMPDEST SWAP2 POP POP SWAP3 SWAP2 POP POP JUMP JUMPDEST PUSH1 0x0 PUSH1 0x80 DUP3 DUP5 SUB SLT ISZERO PUSH2 0x23C JUMPI PUSH1 0x0 DUP1 REVERT JUMPDEST PUSH2 0x246 PUSH1 0x80 PUSH2 0x4E7 JUMP JUMPDEST SWAP1 POP PUSH1 0x0 DUP3 ADD CALLDATALOAD PUSH8 0xFFFFFFFFFFFFFFFF DUP2 GT ISZERO PUSH2 0x262 JUMPI PUSH1 0x0 DUP1 REVERT JUMPDEST PUSH2 0x26E DUP5 DUP3 DUP6 ADD PUSH2 0x200 JUMP JUMPDEST PUSH1 0x0 DUP4 ADD MSTORE POP PUSH1 0x20 PUSH2 0x282 DUP5 DUP3 DUP6 ADD PUSH2 0x2B6 JUMP JUMPDEST PUSH1 0x20 DUP4 ADD MSTORE POP PUSH1 0x40 PUSH2 0x296 DUP5 DUP3 DUP6 ADD PUSH2 0x1D6 JUMP JUMPDEST PUSH1 0x40 DUP4 ADD MSTORE POP PUSH1 0x60 PUSH2 0x2AA DUP5 DUP3 DUP6 ADD PUSH2 0x1D6 JUMP JUMPDEST PUSH1 0x60 DUP4 ADD MSTORE POP SWAP3 SWAP2 POP POP JUMP JUMPDEST PUSH1 0x0 DUP2 CALLDATALOAD SWAP1 POP PUSH2 0x2C5 DUP2 PUSH2 0x5FB JUMP JUMPDEST SWAP3 SWAP2 POP POP JUMP JUMPDEST PUSH1 0x0 DUP2 CALLDATALOAD SWAP1 POP PUSH2 0x2DA DUP2 PUSH2 0x612 JUMP JUMPDEST SWAP3 SWAP2 POP POP JUMP JUMPDEST PUSH1 0x0 DUP1 PUSH1 0x0 DUP1 PUSH1 0x80 DUP6 DUP8 SUB SLT ISZERO PUSH2 0x2F6 JUMPI PUSH1 0x0 DUP1 REVERT JUMPDEST PUSH1 0x0 DUP6 ADD CALLDATALOAD PUSH8 0xFFFFFFFFFFFFFFFF DUP2 GT ISZERO PUSH2 0x310 JUMPI PUSH1 0x0 DUP1 REVERT JUMPDEST PUSH2 0x31C DUP8 DUP3 DUP9 ADD PUSH2 0x22A JUMP JUMPDEST SWAP5 POP POP PUSH1 0x20 PUSH2 0x32D DUP8 DUP3 DUP9 ADD PUSH2 0x2CB JUMP JUMPDEST SWAP4 POP POP PUSH1 0x40 PUSH2 0x33E DUP8 DUP3 DUP9 ADD PUSH2 0x1EB JUMP JUMPDEST SWAP3 POP POP PUSH1 0x60 PUSH2 0x34F DUP8 DUP3 DUP9 ADD PUSH2 0x1EB JUMP JUMPDEST SWAP2 POP POP SWAP3 SWAP6 SWAP2 SWAP5 POP SWAP3 POP JUMP JUMPDEST PUSH2 0x364 DUP2 PUSH2 0x553 JUMP JUMPDEST DUP3 MSTORE POP POP JUMP JUMPDEST PUSH2 0x373 DUP2 PUSH2 0x565 JUMP JUMPDEST DUP3 MSTORE POP POP JUMP JUMPDEST PUSH2 0x382 DUP2 PUSH2 0x571 JUMP JUMPDEST DUP3 MSTORE POP POP JUMP JUMPDEST PUSH2 0x399 PUSH2 0x394 DUP3 PUSH2 0x571 JUMP JUMPDEST PUSH2 0x5C1 JUMP JUMPDEST DUP3 MSTORE POP POP JUMP JUMPDEST PUSH1 0x0 PUSH2 0x3AC PUSH1 0x2 DUP4 PUSH2 0x548 JUMP JUMPDEST SWAP2 POP PUSH32 0x1901000000000000000000000000000000000000000000000000000000000000 PUSH1 0x0 DUP4 ADD MSTORE PUSH1 0x2 DUP3 ADD SWAP1 POP SWAP2 SWAP1 POP JUMP JUMPDEST PUSH2 0x3E8 DUP2 PUSH2 0x59B JUMP JUMPDEST DUP3 MSTORE POP POP JUMP JUMPDEST PUSH2 0x3F7 DUP2 PUSH2 0x5A5 JUMP JUMPDEST DUP3 MSTORE POP POP JUMP JUMPDEST PUSH1 0x0 PUSH2 0x408 DUP3 PUSH2 0x39F JUMP JUMPDEST SWAP2 POP PUSH2 0x414 DUP3 DUP6 PUSH2 0x388 JUMP JUMPDEST PUSH1 0x20 DUP3 ADD SWAP2 POP PUSH2 0x424 DUP3 DUP5 PUSH2 0x388 JUMP JUMPDEST PUSH1 0x20 DUP3 ADD SWAP2 POP DUP2 SWAP1 POP SWAP4 SWAP3 POP POP POP JUMP JUMPDEST PUSH1 0x0 PUSH1 0x20 DUP3 ADD SWAP1 POP PUSH2 0x449 PUSH1 0x0 DUP4 ADD DUP5 PUSH2 0x36A JUMP JUMPDEST SWAP3 SWAP2 POP POP JUMP JUMPDEST PUSH1 0x0 PUSH1 0xA0 DUP3 ADD SWAP1 POP PUSH2 0x464 PUSH1 0x0 DUP4 ADD DUP9 PUSH2 0x379 JUMP JUMPDEST PUSH2 0x471 PUSH1 0x20 DUP4 ADD DUP8 PUSH2 0x379 JUMP JUMPDEST PUSH2 0x47E PUSH1 0x40 DUP4 ADD DUP7 PUSH2 0x3DF JUMP JUMPDEST PUSH2 0x48B PUSH1 0x60 DUP4 ADD DUP6 PUSH2 0x35B JUMP JUMPDEST PUSH2 0x498 PUSH1 0x80 DUP4 ADD DUP5 PUSH2 0x35B JUMP JUMPDEST SWAP7 SWAP6 POP POP POP POP POP POP JUMP JUMPDEST PUSH1 0x0 PUSH1 0x80 DUP3 ADD SWAP1 POP PUSH2 0x4B7 PUSH1 0x0 DUP4 ADD DUP8 PUSH2 0x379 JUMP JUMPDEST PUSH2 0x4C4 PUSH1 0x20 DUP4 ADD DUP7 PUSH2 0x3EE JUMP JUMPDEST PUSH2 0x4D1 PUSH1 0x40 DUP4 ADD DUP6 PUSH2 0x379 JUMP JUMPDEST PUSH2 0x4DE PUSH1 0x60 DUP4 ADD DUP5 PUSH2 0x379 JUMP JUMPDEST SWAP6 SWAP5 POP POP POP POP POP JUMP JUMPDEST PUSH1 0x0 PUSH1 0x40 MLOAD SWAP1 POP DUP2 DUP2 ADD DUP2 DUP2 LT PUSH8 0xFFFFFFFFFFFFFFFF DUP3 GT OR ISZERO PUSH2 0x50E JUMPI PUSH2 0x50D PUSH2 0x5CB JUMP JUMPDEST JUMPDEST DUP1 PUSH1 0x40 MSTORE POP SWAP2 SWAP1 POP JUMP JUMPDEST PUSH1 0x0 PUSH8 0xFFFFFFFFFFFFFFFF DUP3 GT ISZERO PUSH2 0x533 JUMPI PUSH2 0x532 PUSH2 0x5CB JUMP JUMPDEST JUMPDEST PUSH1 0x1F NOT PUSH1 0x1F DUP4 ADD AND SWAP1 POP PUSH1 0x20 DUP2 ADD SWAP1 POP SWAP2 SWAP1 POP JUMP JUMPDEST PUSH1 0x0 DUP2 SWAP1 POP SWAP3 SWAP2 POP POP JUMP JUMPDEST PUSH1 0x0 PUSH2 0x55E DUP3 PUSH2 0x57B JUMP JUMPDEST SWAP1 POP SWAP2 SWAP1 POP JUMP JUMPDEST PUSH1 0x0 DUP2 ISZERO ISZERO SWAP1 POP SWAP2 SWAP1 POP JUMP JUMPDEST PUSH1 0x0 DUP2 SWAP1 POP SWAP2 SWAP1 POP JUMP JUMPDEST PUSH1 0x0 PUSH20 0xFFFFFFFFFFFFFFFFFFFFFFFFFFFFFFFFFFFFFFFF DUP3 AND SWAP1 POP SWAP2 SWAP1 POP JUMP JUMPDEST PUSH1 0x0 DUP2 SWAP1 POP SWAP2 SWAP1 POP JUMP JUMPDEST PUSH1 0x0 PUSH1 0xFF DUP3 AND SWAP1 POP SWAP2 SWAP1 POP JUMP JUMPDEST DUP3 DUP2 DUP4 CALLDATACOPY PUSH1 0x0 DUP4 DUP4 ADD MSTORE POP POP POP JUMP JUMPDEST PUSH1 0x0 DUP2 SWAP1 POP SWAP2 SWAP1 POP JUMP JUMPDEST INVALID JUMPDEST PUSH2 0x5D6 DUP2 PUSH2 0x553 JUMP JUMPDEST DUP2 EQ PUSH2 0x5E1 JUMPI PUSH1 0x0 DUP1 REVERT JUMPDEST POP JUMP JUMPDEST PUSH2 0x5ED DUP2 PUSH2 0x571 JUMP JUMPDEST DUP2 EQ PUSH2 0x5F8 JUMPI PUSH1 0x0 DUP1 REVERT JUMPDEST POP JUMP JUMPDEST PUSH2 0x604 DUP2 PUSH2 0x59B JUMP JUMPDEST DUP2 EQ PUSH2 0x60F JUMPI PUSH1 0x0 DUP1 REVERT JUMPDEST POP JUMP JUMPDEST PUSH2 0x61B DUP2 PUSH2 0x5A5 JUMP JUMPDEST DUP2 EQ PUSH2 0x626 JUMPI PUSH1 0x0 DUP1 REVERT JUMPDEST POP JUMP INVALID GASLIMIT PUSH25 0x616D706C654D65737361676528737472696E67206D65737361 PUSH8 0x652C75696E743235 CALLDATASIZE KECCAK256 PUSH23 0x616C75652C616464726573732066726F6D2C6164647265 PUSH20 0x7320746F29A2646970667358221220579362212A 0x1F EXTCODESIZE 0xCE 0x27 0xD7 PUSH2 0xE0C0 COINBASE 0x22 0xCD SWAP13 0xEF 0xA9 0xF 0xF8 SELFBALANCE SWAP16 0xE0 PUSH14 0xAE7FD7DED6798364736F6C634300 SMOD MOD STOP CALLER "
				},
				"gasEstimates": {
					"creation": {
						"codeDepositCost": "339800",
						"executionCost": "infinite",
						"totalCost": "infinite"
					},
					"external": {
						"verifyMessage((string,uint256,address,address),uint8,bytes32,bytes32)": "infinite"
					},
					"internal": {
						"hashDomain(struct EIP712Domain memory)": "infinite",
						"hashMessage(struct ExampleMessage memory)": "infinite"
					}
				},
				"methodIdentifiers": {
					"verifyMessage((string,uint256,address,address),uint8,bytes32,bytes32)": "9fd7124e"
				}
			},
			"storageLayout": {
				"storage": [
					{
						"astId": 24,
						"contract": "contracts/1_eip712.sol:EIP712Example",
						"label": "DOMAIN_SEPARATOR",
						"offset": 0,
						"slot": "0",
						"type": "t_bytes32"
					}
				],
				"types": {
					"t_bytes32": {
						"encoding": "inplace",
						"label": "bytes32",
						"numberOfBytes": "32"
					}
				}
			},
			"userdoc": {
				"kind": "user",
				"methods": {},
				"version": 1
			}
		}
	}
}