{
	"contracts/eip712.sol": {
		"EIP712Example": {
			"abi": [
				{
					"inputs": [],
					"stateMutability": "nonpayable",
					"type": "constructor"
				},
				{
					"inputs": [
						{
							"components": [
								{
									"internalType": "string",
									"name": "message",
									"type": "string"
								},
								{
									"internalType": "uint256",
									"name": "value",
									"type": "uint256"
								},
								{
									"internalType": "address",
									"name": "from",
									"type": "address"
								},
								{
									"internalType": "address",
									"name": "to",
									"type": "address"
								}
							],
							"internalType": "struct ExampleMessage",
							"name": "message",
							"type": "tuple"
						},
						{
							"internalType": "uint8",
							"name": "v",
							"type": "uint8"
						},
						{
							"internalType": "bytes32",
							"name": "r",
							"type": "bytes32"
						},
						{
							"internalType": "bytes32",
							"name": "s",
							"type": "bytes32"
						}
					],
					"name": "verifyMessage",
					"outputs": [
						{
							"internalType": "bool",
							"name": "",
							"type": "bool"
						}
					],
					"stateMutability": "view",
					"type": "function"
				}
			],
			"devdoc": {
				"kind": "dev",
				"methods": {},
				"version": 1
			},
			"evm": {
				"assembly": "    /* \"contracts/eip712.sol\":342:2126  contract EIP712Example {... */\n  mstore(0x40, 0x80)\n    /* \"contracts/eip712.sol\":534:787  constructor() {... */\n  callvalue\n  dup1\n  iszero\n  tag_1\n  jumpi\n  0x00\n  dup1\n  revert\ntag_1:\n  pop\n    /* \"contracts/eip712.sol\":577:780  hashDomain(EIP712Domain({... */\n  tag_4\n    /* \"contracts/eip712.sol\":588:779  EIP712Domain({... */\n  mload(0x40)\n  dup1\n  0xa0\n  add\n  0x40\n  mstore\n  dup1\n  mload(0x40)\n  dup1\n  0x40\n  add\n  0x40\n  mstore\n  dup1\n  0x0d\n  dup2\n  mstore\n  0x20\n  add\n  0x4549503731324578616d706c6500000000000000000000000000000000000000\n  dup2\n  mstore\n  pop\n  dup2\n  mstore\n  0x20\n  add\n  mload(0x40)\n  dup1\n  0x40\n  add\n  0x40\n  mstore\n  dup1\n  0x01\n  dup2\n  mstore\n  0x20\n  add\n  0x3100000000000000000000000000000000000000000000000000000000000000\n  dup2\n  mstore\n  pop\n  dup2\n  mstore\n  0x20\n  add\n    /* \"contracts/eip712.sol\":685:698  block.chainid */\n  chainid\n    /* \"contracts/eip712.sol\":588:779  EIP712Domain({... */\n  dup2\n  mstore\n  0x20\n  add\n    /* \"contracts/eip712.sol\":739:743  this */\n  address\n    /* \"contracts/eip712.sol\":588:779  EIP712Domain({... */\n  0xffffffffffffffffffffffffffffffffffffffff\n  and\n  dup2\n  mstore\n  0x20\n  add\n    /* \"contracts/eip712.sol\":764:768  SALT */\n  0x70736575646f2d74657874000000000000000000000000000000000000000000\n    /* \"contracts/eip712.sol\":588:779  EIP712Domain({... */\n  dup2\n  mstore\n  pop\n    /* \"contracts/eip712.sol\":577:587  hashDomain */\n  shl(0x20, tag_5)\n    /* \"contracts/eip712.sol\":577:780  hashDomain(EIP712Domain({... */\n  0x20\n  shr\n  jump\t// in\ntag_4:\n    /* \"contracts/eip712.sol\":558:574  DOMAIN_SEPARATOR */\n  0x00\n    /* \"contracts/eip712.sol\":558:780  DOMAIN_SEPARATOR = hashDomain(EIP712Domain({... */\n  dup2\n  swap1\n  sstore\n  pop\n    /* \"contracts/eip712.sol\":342:2126  contract EIP712Example {... */\n  jump(tag_6)\n    /* \"contracts/eip712.sol\":842:1278  function hashDomain(EIP712Domain memory domain) private pure returns (bytes32) {... */\ntag_5:\n    /* \"contracts/eip712.sol\":912:919  bytes32 */\n  0x00\n    /* \"contracts/eip712.sol\":972:1080  keccak256(\"EIP712Domain(string name,string version,uint256 chainId,address verifyingContract,bytes32 salt)\") */\n  0xd87cd6ef79d4e2b95e15ce8abf732db51ec771f1ca2edccf22a46c729ac56472\n    /* \"contracts/eip712.sol\":1110:1116  domain */\n  dup3\n    /* \"contracts/eip712.sol\":1110:1121  domain.name */\n  0x00\n  add\n  mload\n    /* \"contracts/eip712.sol\":1094:1123  keccak256(bytes(domain.name)) */\n  dup1\n  mload\n  swap1\n  0x20\n  add\n  keccak256\n    /* \"contracts/eip712.sol\":1153:1159  domain */\n  dup4\n    /* \"contracts/eip712.sol\":1153:1167  domain.version */\n  0x20\n  add\n  mload\n    /* \"contracts/eip712.sol\":1137:1169  keccak256(bytes(domain.version)) */\n  dup1\n  mload\n  swap1\n  0x20\n  add\n  keccak256\n    /* \"contracts/eip712.sol\":1183:1189  domain */\n  dup5\n    /* \"contracts/eip712.sol\":1183:1197  domain.chainId */\n  0x40\n  add\n  mload\n    /* \"contracts/eip712.sol\":1211:1217  domain */\n  dup6\n    /* \"contracts/eip712.sol\":1211:1235  domain.verifyingContract */\n  0x60\n  add\n  mload\n    /* \"contracts/eip712.sol\":1249:1255  domain */\n  dup7\n    /* \"contracts/eip712.sol\":1249:1260  domain.salt */\n  0x80\n  add\n  mload\n    /* \"contracts/eip712.sol\":948:1270  abi.encode(... */\n  add(0x20, mload(0x40))\n  tag_8\n  swap7\n  swap6\n  swap5\n  swap4\n  swap3\n  swap2\n  swap1\n  tag_9\n  jump\t// in\ntag_8:\n  mload(0x40)\n  0x20\n  dup2\n  dup4\n  sub\n  sub\n  dup2\n  mstore\n  swap1\n  0x40\n  mstore\n    /* \"contracts/eip712.sol\":938:1271  keccak256(abi.encode(... */\n  dup1\n  mload\n  swap1\n  0x20\n  add\n  keccak256\n    /* \"contracts/eip712.sol\":931:1271  return keccak256(abi.encode(... */\n  swap1\n  pop\n    /* \"contracts/eip712.sol\":842:1278  function hashDomain(EIP712Domain memory domain) private pure returns (bytes32) {... */\n  swap2\n  swap1\n  pop\n  jump\t// out\n    /* \"#utility.yul\":7:84   */\ntag_10:\n    /* \"#utility.yul\":44:51   */\n  0x00\n    /* \"#utility.yul\":73:78   */\n  dup2\n    /* \"#utility.yul\":62:78   */\n  swap1\n  pop\n    /* \"#utility.yul\":7:84   */\n  swap2\n  swap1\n  pop\n  jump\t// out\n    /* \"#utility.yul\":90:208   */\ntag_11:\n    /* \"#utility.yul\":177:201   */\n  tag_20\n    /* \"#utility.yul\":195:200   */\n  dup2\n    /* \"#utility.yul\":177:201   */\n  tag_10\n  jump\t// in\ntag_20:\n    /* \"#utility.yul\":172:175   */\n  dup3\n    /* \"#utility.yul\":165:202   */\n  mstore\n    /* \"#utility.yul\":90:208   */\n  pop\n  pop\n  jump\t// out\n    /* \"#utility.yul\":214:291   */\ntag_12:\n    /* \"#utility.yul\":251:258   */\n  0x00\n    /* \"#utility.yul\":280:285   */\n  dup2\n    /* \"#utility.yul\":269:285   */\n  swap1\n  pop\n    /* \"#utility.yul\":214:291   */\n  swap2\n  swap1\n  pop\n  jump\t// out\n    /* \"#utility.yul\":297:415   */\ntag_13:\n    /* \"#utility.yul\":384:408   */\n  tag_23\n    /* \"#utility.yul\":402:407   */\n  dup2\n    /* \"#utility.yul\":384:408   */\n  tag_12\n  jump\t// in\ntag_23:\n    /* \"#utility.yul\":379:382   */\n  dup3\n    /* \"#utility.yul\":372:409   */\n  mstore\n    /* \"#utility.yul\":297:415   */\n  pop\n  pop\n  jump\t// out\n    /* \"#utility.yul\":421:547   */\ntag_14:\n    /* \"#utility.yul\":458:465   */\n  0x00\n    /* \"#utility.yul\":498:540   */\n  0xffffffffffffffffffffffffffffffffffffffff\n    /* \"#utility.yul\":491:496   */\n  dup3\n    /* \"#utility.yul\":487:541   */\n  and\n    /* \"#utility.yul\":476:541   */\n  swap1\n  pop\n    /* \"#utility.yul\":421:547   */\n  swap2\n  swap1\n  pop\n  jump\t// out\n    /* \"#utility.yul\":553:649   */\ntag_15:\n    /* \"#utility.yul\":590:597   */\n  0x00\n    /* \"#utility.yul\":619:643   */\n  tag_26\n    /* \"#utility.yul\":637:642   */\n  dup3\n    /* \"#utility.yul\":619:643   */\n  tag_14\n  jump\t// in\ntag_26:\n    /* \"#utility.yul\":608:643   */\n  swap1\n  pop\n    /* \"#utility.yul\":553:649   */\n  swap2\n  swap1\n  pop\n  jump\t// out\n    /* \"#utility.yul\":655:773   */\ntag_16:\n    /* \"#utility.yul\":742:766   */\n  tag_28\n    /* \"#utility.yul\":760:765   */\n  dup2\n    /* \"#utility.yul\":742:766   */\n  tag_15\n  jump\t// in\ntag_28:\n    /* \"#utility.yul\":737:740   */\n  dup3\n    /* \"#utility.yul\":730:767   */\n  mstore\n    /* \"#utility.yul\":655:773   */\n  pop\n  pop\n  jump\t// out\n    /* \"#utility.yul\":779:1554   */\ntag_9:\n    /* \"#utility.yul\":1012:1016   */\n  0x00\n    /* \"#utility.yul\":1050:1053   */\n  0xc0\n    /* \"#utility.yul\":1039:1048   */\n  dup3\n    /* \"#utility.yul\":1035:1054   */\n  add\n    /* \"#utility.yul\":1027:1054   */\n  swap1\n  pop\n    /* \"#utility.yul\":1064:1135   */\n  tag_30\n    /* \"#utility.yul\":1132:1133   */\n  0x00\n    /* \"#utility.yul\":1121:1130   */\n  dup4\n    /* \"#utility.yul\":1117:1134   */\n  add\n    /* \"#utility.yul\":1108:1114   */\n  dup10\n    /* \"#utility.yul\":1064:1135   */\n  tag_11\n  jump\t// in\ntag_30:\n    /* \"#utility.yul\":1145:1217   */\n  tag_31\n    /* \"#utility.yul\":1213:1215   */\n  0x20\n    /* \"#utility.yul\":1202:1211   */\n  dup4\n    /* \"#utility.yul\":1198:1216   */\n  add\n    /* \"#utility.yul\":1189:1195   */\n  dup9\n    /* \"#utility.yul\":1145:1217   */\n  tag_11\n  jump\t// in\ntag_31:\n    /* \"#utility.yul\":1227:1299   */\n  tag_32\n    /* \"#utility.yul\":1295:1297   */\n  0x40\n    /* \"#utility.yul\":1284:1293   */\n  dup4\n    /* \"#utility.yul\":1280:1298   */\n  add\n    /* \"#utility.yul\":1271:1277   */\n  dup8\n    /* \"#utility.yul\":1227:1299   */\n  tag_11\n  jump\t// in\ntag_32:\n    /* \"#utility.yul\":1309:1381   */\n  tag_33\n    /* \"#utility.yul\":1377:1379   */\n  0x60\n    /* \"#utility.yul\":1366:1375   */\n  dup4\n    /* \"#utility.yul\":1362:1380   */\n  add\n    /* \"#utility.yul\":1353:1359   */\n  dup7\n    /* \"#utility.yul\":1309:1381   */\n  tag_13\n  jump\t// in\ntag_33:\n    /* \"#utility.yul\":1391:1464   */\n  tag_34\n    /* \"#utility.yul\":1459:1462   */\n  0x80\n    /* \"#utility.yul\":1448:1457   */\n  dup4\n    /* \"#utility.yul\":1444:1463   */\n  add\n    /* \"#utility.yul\":1435:1441   */\n  dup6\n    /* \"#utility.yul\":1391:1464   */\n  tag_16\n  jump\t// in\ntag_34:\n    /* \"#utility.yul\":1474:1547   */\n  tag_35\n    /* \"#utility.yul\":1542:1545   */\n  0xa0\n    /* \"#utility.yul\":1531:1540   */\n  dup4\n    /* \"#utility.yul\":1527:1546   */\n  add\n    /* \"#utility.yul\":1518:1524   */\n  dup5\n    /* \"#utility.yul\":1474:1547   */\n  tag_11\n  jump\t// in\ntag_35:\n    /* \"#utility.yul\":779:1554   */\n  swap8\n  swap7\n  pop\n  pop\n  pop\n  pop\n  pop\n  pop\n  pop\n  jump\t// out\n    /* \"contracts/eip712.sol\":342:2126  contract EIP712Example {... */\ntag_6:\n  dataSize(sub_0)\n  dup1\n  dataOffset(sub_0)\n  0x00\n  codecopy\n  0x00\n  return\nstop\n\nsub_0: assembly {\n        /* \"contracts/eip712.sol\":342:2126  contract EIP712Example {... */\n      mstore(0x40, 0x80)\n      callvalue\n      dup1\n      iszero\n      tag_1\n      jumpi\n      0x00\n      dup1\n      revert\n    tag_1:\n      pop\n      jumpi(tag_2, lt(calldatasize, 0x04))\n      shr(0xe0, calldataload(0x00))\n      dup1\n      0x9fd7124e\n      eq\n      tag_3\n      jumpi\n    tag_2:\n      0x00\n      dup1\n      revert\n        /* \"contracts/eip712.sol\":1737:2124  function verifyMessage(ExampleMessage memory message, uint8 v, bytes32 r, bytes32 s) public view returns (bool) {... */\n    tag_3:\n      tag_4\n      0x04\n      dup1\n      calldatasize\n      sub\n      dup2\n      add\n      swap1\n      tag_5\n      swap2\n      swap1\n      tag_6\n      jump\t// in\n    tag_5:\n      tag_7\n      jump\t// in\n    tag_4:\n      mload(0x40)\n      tag_8\n      swap2\n      swap1\n      tag_9\n      jump\t// in\n    tag_8:\n      mload(0x40)\n      dup1\n      swap2\n      sub\n      swap1\n      return\n    tag_7:\n        /* \"contracts/eip712.sol\":1843:1847  bool */\n      0x00\n        /* \"contracts/eip712.sol\":1859:1873  bytes32 digest */\n      dup1\n        /* \"contracts/eip712.sol\":1940:1956  DOMAIN_SEPARATOR */\n      sload(0x00)\n        /* \"contracts/eip712.sol\":1970:1990  hashMessage(message) */\n      tag_11\n        /* \"contracts/eip712.sol\":1982:1989  message */\n      dup8\n        /* \"contracts/eip712.sol\":1970:1981  hashMessage */\n      tag_12\n        /* \"contracts/eip712.sol\":1970:1990  hashMessage(message) */\n      jump\t// in\n    tag_11:\n        /* \"contracts/eip712.sol\":1886:2000  abi.encodePacked(... */\n      add(0x20, mload(0x40))\n      tag_13\n      swap3\n      swap2\n      swap1\n      tag_14\n      jump\t// in\n    tag_13:\n      mload(0x40)\n      0x20\n      dup2\n      dup4\n      sub\n      sub\n      dup2\n      mstore\n      swap1\n      0x40\n      mstore\n        /* \"contracts/eip712.sol\":1876:2001  keccak256(abi.encodePacked(... */\n      dup1\n      mload\n      swap1\n      0x20\n      add\n      keccak256\n        /* \"contracts/eip712.sol\":1859:2001  bytes32 digest = keccak256(abi.encodePacked(... */\n      swap1\n      pop\n        /* \"contracts/eip712.sol\":2012:2036  address recoveredAddress */\n      0x00\n        /* \"contracts/eip712.sol\":2039:2065  ecrecover(digest, v, r, s) */\n      0x01\n        /* \"contracts/eip712.sol\":2049:2055  digest */\n      dup3\n        /* \"contracts/eip712.sol\":2057:2058  v */\n      dup8\n        /* \"contracts/eip712.sol\":2060:2061  r */\n      dup8\n        /* \"contracts/eip712.sol\":2063:2064  s */\n      dup8\n        /* \"contracts/eip712.sol\":2039:2065  ecrecover(digest, v, r, s) */\n      mload(0x40)\n      0x00\n      dup2\n      mstore\n      0x20\n      add\n      0x40\n      mstore\n      mload(0x40)\n      tag_15\n      swap5\n      swap4\n      swap3\n      swap2\n      swap1\n      tag_16\n      jump\t// in\n    tag_15:\n      0x20\n      mload(0x40)\n      0x20\n      dup2\n      sub\n      swap1\n      dup1\n      dup5\n      sub\n      swap1\n      dup6\n      gas\n      staticcall\n      iszero\n      dup1\n      iszero\n      tag_18\n      jumpi\n      returndatasize\n      0x00\n      dup1\n      returndatacopy\n      revert(0x00, returndatasize)\n    tag_18:\n      pop\n      pop\n      pop\n      mload(sub(mload(0x40), 0x20))\n        /* \"contracts/eip712.sol\":2012:2065  address recoveredAddress = ecrecover(digest, v, r, s) */\n      swap1\n      pop\n        /* \"contracts/eip712.sol\":2104:2111  message */\n      dup7\n        /* \"contracts/eip712.sol\":2104:2116  message.from */\n      0x40\n      add\n      mload\n        /* \"contracts/eip712.sol\":2084:2116  recoveredAddress == message.from */\n      0xffffffffffffffffffffffffffffffffffffffff\n      and\n        /* \"contracts/eip712.sol\":2084:2100  recoveredAddress */\n      dup2\n        /* \"contracts/eip712.sol\":2084:2116  recoveredAddress == message.from */\n      0xffffffffffffffffffffffffffffffffffffffff\n      and\n      eq\n        /* \"contracts/eip712.sol\":2076:2117  return (recoveredAddress == message.from) */\n      swap3\n      pop\n      pop\n      pop\n        /* \"contracts/eip712.sol\":1737:2124  function verifyMessage(ExampleMessage memory message, uint8 v, bytes32 r, bytes32 s) public view returns (bool) {... */\n      swap5\n      swap4\n      pop\n      pop\n      pop\n      pop\n      jump\t// out\n        /* \"contracts/eip712.sol\":1323:1687  function hashMessage(ExampleMessage memory message) private pure returns (bytes32) {... */\n    tag_12:\n        /* \"contracts/eip712.sol\":1397:1404  bytes32 */\n      0x00\n        /* \"contracts/eip712.sol\":1467:1544  bytes(\"ExampleMessage(string message,uint256 value,address from,address to)\") */\n      mload(0x40)\n      dup1\n      0x80\n      add\n      0x40\n      mstore\n      dup1\n      0x44\n      dup2\n      mstore\n      0x20\n      add\n      data_ab1d09716015dd330c33c7d36221c0627e8b83dd47502e0891612a8cd91fda2d\n      0x44\n      swap2\n      codecopy\n        /* \"contracts/eip712.sol\":1457:1545  keccak256(bytes(\"ExampleMessage(string message,uint256 value,address from,address to)\")) */\n      dup1\n      mload\n      swap1\n      0x20\n      add\n      keccak256\n        /* \"contracts/eip712.sol\":1575:1582  message */\n      dup3\n        /* \"contracts/eip712.sol\":1575:1590  message.message */\n      0x00\n      add\n      mload\n        /* \"contracts/eip712.sol\":1559:1592  keccak256(bytes(message.message)) */\n      dup1\n      mload\n      swap1\n      0x20\n      add\n      keccak256\n        /* \"contracts/eip712.sol\":1606:1613  message */\n      dup4\n        /* \"contracts/eip712.sol\":1606:1619  message.value */\n      0x20\n      add\n      mload\n        /* \"contracts/eip712.sol\":1633:1640  message */\n      dup5\n        /* \"contracts/eip712.sol\":1633:1645  message.from */\n      0x40\n      add\n      mload\n        /* \"contracts/eip712.sol\":1659:1666  message */\n      dup6\n        /* \"contracts/eip712.sol\":1659:1669  message.to */\n      0x60\n      add\n      mload\n        /* \"contracts/eip712.sol\":1433:1679  abi.encode(... */\n      add(0x20, mload(0x40))\n      tag_20\n      swap6\n      swap5\n      swap4\n      swap3\n      swap2\n      swap1\n      tag_21\n      jump\t// in\n    tag_20:\n      mload(0x40)\n      0x20\n      dup2\n      dup4\n      sub\n      sub\n      dup2\n      mstore\n      swap1\n      0x40\n      mstore\n        /* \"contracts/eip712.sol\":1423:1680  keccak256(abi.encode(... */\n      dup1\n      mload\n      swap1\n      0x20\n      add\n      keccak256\n        /* \"contracts/eip712.sol\":1416:1680  return keccak256(abi.encode(... */\n      swap1\n      pop\n        /* \"contracts/eip712.sol\":1323:1687  function hashMessage(ExampleMessage memory message) private pure returns (bytes32) {... */\n      swap2\n      swap1\n      pop\n      jump\t// out\n        /* \"#utility.yul\":7:82   */\n    tag_22:\n        /* \"#utility.yul\":40:46   */\n      0x00\n        /* \"#utility.yul\":73:75   */\n      0x40\n        /* \"#utility.yul\":67:76   */\n      mload\n        /* \"#utility.yul\":57:76   */\n      swap1\n      pop\n        /* \"#utility.yul\":7:82   */\n      swap1\n      jump\t// out\n        /* \"#utility.yul\":88:205   */\n    tag_23:\n        /* \"#utility.yul\":197:198   */\n      0x00\n        /* \"#utility.yul\":194:195   */\n      dup1\n        /* \"#utility.yul\":187:199   */\n      revert\n        /* \"#utility.yul\":211:328   */\n    tag_24:\n        /* \"#utility.yul\":320:321   */\n      0x00\n        /* \"#utility.yul\":317:318   */\n      dup1\n        /* \"#utility.yul\":310:322   */\n      revert\n        /* \"#utility.yul\":334:451   */\n    tag_25:\n        /* \"#utility.yul\":443:444   */\n      0x00\n        /* \"#utility.yul\":440:441   */\n      dup1\n        /* \"#utility.yul\":433:445   */\n      revert\n        /* \"#utility.yul\":457:559   */\n    tag_26:\n        /* \"#utility.yul\":498:504   */\n      0x00\n        /* \"#utility.yul\":549:551   */\n      0x1f\n        /* \"#utility.yul\":545:552   */\n      not\n        /* \"#utility.yul\":540:542   */\n      0x1f\n        /* \"#utility.yul\":533:538   */\n      dup4\n        /* \"#utility.yul\":529:543   */\n      add\n        /* \"#utility.yul\":525:553   */\n      and\n        /* \"#utility.yul\":515:553   */\n      swap1\n      pop\n        /* \"#utility.yul\":457:559   */\n      swap2\n      swap1\n      pop\n      jump\t// out\n        /* \"#utility.yul\":565:745   */\n    tag_27:\n        /* \"#utility.yul\":613:690   */\n      0x4e487b7100000000000000000000000000000000000000000000000000000000\n        /* \"#utility.yul\":610:611   */\n      0x00\n        /* \"#utility.yul\":603:691   */\n      mstore\n        /* \"#utility.yul\":710:714   */\n      0x41\n        /* \"#utility.yul\":707:708   */\n      0x04\n        /* \"#utility.yul\":700:715   */\n      mstore\n        /* \"#utility.yul\":734:738   */\n      0x24\n        /* \"#utility.yul\":731:732   */\n      0x00\n        /* \"#utility.yul\":724:739   */\n      revert\n        /* \"#utility.yul\":751:1032   */\n    tag_28:\n        /* \"#utility.yul\":834:861   */\n      tag_70\n        /* \"#utility.yul\":856:860   */\n      dup3\n        /* \"#utility.yul\":834:861   */\n      tag_26\n      jump\t// in\n    tag_70:\n        /* \"#utility.yul\":826:832   */\n      dup2\n        /* \"#utility.yul\":822:862   */\n      add\n        /* \"#utility.yul\":964:970   */\n      dup2\n        /* \"#utility.yul\":952:962   */\n      dup2\n        /* \"#utility.yul\":949:971   */\n      lt\n        /* \"#utility.yul\":928:946   */\n      0xffffffffffffffff\n        /* \"#utility.yul\":916:926   */\n      dup3\n        /* \"#utility.yul\":913:947   */\n      gt\n        /* \"#utility.yul\":910:972   */\n      or\n        /* \"#utility.yul\":907:995   */\n      iszero\n      tag_71\n      jumpi\n        /* \"#utility.yul\":975:993   */\n      tag_72\n      tag_27\n      jump\t// in\n    tag_72:\n        /* \"#utility.yul\":907:995   */\n    tag_71:\n        /* \"#utility.yul\":1015:1025   */\n      dup1\n        /* \"#utility.yul\":1011:1013   */\n      0x40\n        /* \"#utility.yul\":1004:1026   */\n      mstore\n        /* \"#utility.yul\":794:1032   */\n      pop\n        /* \"#utility.yul\":751:1032   */\n      pop\n      pop\n      jump\t// out\n        /* \"#utility.yul\":1038:1167   */\n    tag_29:\n        /* \"#utility.yul\":1072:1078   */\n      0x00\n        /* \"#utility.yul\":1099:1119   */\n      tag_74\n      tag_22\n      jump\t// in\n    tag_74:\n        /* \"#utility.yul\":1089:1119   */\n      swap1\n      pop\n        /* \"#utility.yul\":1128:1161   */\n      tag_75\n        /* \"#utility.yul\":1156:1160   */\n      dup3\n        /* \"#utility.yul\":1148:1154   */\n      dup3\n        /* \"#utility.yul\":1128:1161   */\n      tag_28\n      jump\t// in\n    tag_75:\n        /* \"#utility.yul\":1038:1167   */\n      swap2\n      swap1\n      pop\n      jump\t// out\n        /* \"#utility.yul\":1173:1290   */\n    tag_30:\n        /* \"#utility.yul\":1282:1283   */\n      0x00\n        /* \"#utility.yul\":1279:1280   */\n      dup1\n        /* \"#utility.yul\":1272:1284   */\n      revert\n        /* \"#utility.yul\":1296:1413   */\n    tag_31:\n        /* \"#utility.yul\":1405:1406   */\n      0x00\n        /* \"#utility.yul\":1402:1403   */\n      dup1\n        /* \"#utility.yul\":1395:1407   */\n      revert\n        /* \"#utility.yul\":1419:1536   */\n    tag_32:\n        /* \"#utility.yul\":1528:1529   */\n      0x00\n        /* \"#utility.yul\":1525:1526   */\n      dup1\n        /* \"#utility.yul\":1518:1530   */\n      revert\n        /* \"#utility.yul\":1542:1850   */\n    tag_33:\n        /* \"#utility.yul\":1604:1608   */\n      0x00\n        /* \"#utility.yul\":1694:1712   */\n      0xffffffffffffffff\n        /* \"#utility.yul\":1686:1692   */\n      dup3\n        /* \"#utility.yul\":1683:1713   */\n      gt\n        /* \"#utility.yul\":1680:1736   */\n      iszero\n      tag_80\n      jumpi\n        /* \"#utility.yul\":1716:1734   */\n      tag_81\n      tag_27\n      jump\t// in\n    tag_81:\n        /* \"#utility.yul\":1680:1736   */\n    tag_80:\n        /* \"#utility.yul\":1754:1783   */\n      tag_82\n        /* \"#utility.yul\":1776:1782   */\n      dup3\n        /* \"#utility.yul\":1754:1783   */\n      tag_26\n      jump\t// in\n    tag_82:\n        /* \"#utility.yul\":1746:1783   */\n      swap1\n      pop\n        /* \"#utility.yul\":1838:1842   */\n      0x20\n        /* \"#utility.yul\":1832:1836   */\n      dup2\n        /* \"#utility.yul\":1828:1843   */\n      add\n        /* \"#utility.yul\":1820:1843   */\n      swap1\n      pop\n        /* \"#utility.yul\":1542:1850   */\n      swap2\n      swap1\n      pop\n      jump\t// out\n        /* \"#utility.yul\":1856:2004   */\n    tag_34:\n        /* \"#utility.yul\":1954:1960   */\n      dup3\n        /* \"#utility.yul\":1949:1952   */\n      dup2\n        /* \"#utility.yul\":1944:1947   */\n      dup4\n        /* \"#utility.yul\":1931:1961   */\n      calldatacopy\n        /* \"#utility.yul\":1995:1996   */\n      0x00\n        /* \"#utility.yul\":1986:1992   */\n      dup4\n        /* \"#utility.yul\":1981:1984   */\n      dup4\n        /* \"#utility.yul\":1977:1993   */\n      add\n        /* \"#utility.yul\":1970:1997   */\n      mstore\n        /* \"#utility.yul\":1856:2004   */\n      pop\n      pop\n      pop\n      jump\t// out\n        /* \"#utility.yul\":2010:2435   */\n    tag_35:\n        /* \"#utility.yul\":2088:2093   */\n      0x00\n        /* \"#utility.yul\":2113:2179   */\n      tag_85\n        /* \"#utility.yul\":2129:2178   */\n      tag_86\n        /* \"#utility.yul\":2171:2177   */\n      dup5\n        /* \"#utility.yul\":2129:2178   */\n      tag_33\n      jump\t// in\n    tag_86:\n        /* \"#utility.yul\":2113:2179   */\n      tag_29\n      jump\t// in\n    tag_85:\n        /* \"#utility.yul\":2104:2179   */\n      swap1\n      pop\n        /* \"#utility.yul\":2202:2208   */\n      dup3\n        /* \"#utility.yul\":2195:2200   */\n      dup2\n        /* \"#utility.yul\":2188:2209   */\n      mstore\n        /* \"#utility.yul\":2240:2244   */\n      0x20\n        /* \"#utility.yul\":2233:2238   */\n      dup2\n        /* \"#utility.yul\":2229:2245   */\n      add\n        /* \"#utility.yul\":2278:2281   */\n      dup5\n        /* \"#utility.yul\":2269:2275   */\n      dup5\n        /* \"#utility.yul\":2264:2267   */\n      dup5\n        /* \"#utility.yul\":2260:2276   */\n      add\n        /* \"#utility.yul\":2257:2282   */\n      gt\n        /* \"#utility.yul\":2254:2366   */\n      iszero\n      tag_87\n      jumpi\n        /* \"#utility.yul\":2285:2364   */\n      tag_88\n      tag_32\n      jump\t// in\n    tag_88:\n        /* \"#utility.yul\":2254:2366   */\n    tag_87:\n        /* \"#utility.yul\":2375:2429   */\n      tag_89\n        /* \"#utility.yul\":2422:2428   */\n      dup5\n        /* \"#utility.yul\":2417:2420   */\n      dup3\n        /* \"#utility.yul\":2412:2415   */\n      dup6\n        /* \"#utility.yul\":2375:2429   */\n      tag_34\n      jump\t// in\n    tag_89:\n        /* \"#utility.yul\":2094:2435   */\n      pop\n        /* \"#utility.yul\":2010:2435   */\n      swap4\n      swap3\n      pop\n      pop\n      pop\n      jump\t// out\n        /* \"#utility.yul\":2455:2795   */\n    tag_36:\n        /* \"#utility.yul\":2511:2516   */\n      0x00\n        /* \"#utility.yul\":2560:2563   */\n      dup3\n        /* \"#utility.yul\":2553:2557   */\n      0x1f\n        /* \"#utility.yul\":2545:2551   */\n      dup4\n        /* \"#utility.yul\":2541:2558   */\n      add\n        /* \"#utility.yul\":2537:2564   */\n      slt\n        /* \"#utility.yul\":2527:2649   */\n      tag_91\n      jumpi\n        /* \"#utility.yul\":2568:2647   */\n      tag_92\n      tag_31\n      jump\t// in\n    tag_92:\n        /* \"#utility.yul\":2527:2649   */\n    tag_91:\n        /* \"#utility.yul\":2685:2691   */\n      dup2\n        /* \"#utility.yul\":2672:2692   */\n      calldataload\n        /* \"#utility.yul\":2710:2789   */\n      tag_93\n        /* \"#utility.yul\":2785:2788   */\n      dup5\n        /* \"#utility.yul\":2777:2783   */\n      dup3\n        /* \"#utility.yul\":2770:2774   */\n      0x20\n        /* \"#utility.yul\":2762:2768   */\n      dup7\n        /* \"#utility.yul\":2758:2775   */\n      add\n        /* \"#utility.yul\":2710:2789   */\n      tag_35\n      jump\t// in\n    tag_93:\n        /* \"#utility.yul\":2701:2789   */\n      swap2\n      pop\n        /* \"#utility.yul\":2517:2795   */\n      pop\n        /* \"#utility.yul\":2455:2795   */\n      swap3\n      swap2\n      pop\n      pop\n      jump\t// out\n        /* \"#utility.yul\":2801:2878   */\n    tag_37:\n        /* \"#utility.yul\":2838:2845   */\n      0x00\n        /* \"#utility.yul\":2867:2872   */\n      dup2\n        /* \"#utility.yul\":2856:2872   */\n      swap1\n      pop\n        /* \"#utility.yul\":2801:2878   */\n      swap2\n      swap1\n      pop\n      jump\t// out\n        /* \"#utility.yul\":2884:3006   */\n    tag_38:\n        /* \"#utility.yul\":2957:2981   */\n      tag_96\n        /* \"#utility.yul\":2975:2980   */\n      dup2\n        /* \"#utility.yul\":2957:2981   */\n      tag_37\n      jump\t// in\n    tag_96:\n        /* \"#utility.yul\":2950:2955   */\n      dup2\n        /* \"#utility.yul\":2947:2982   */\n      eq\n        /* \"#utility.yul\":2937:3000   */\n      tag_97\n      jumpi\n        /* \"#utility.yul\":2996:2997   */\n      0x00\n        /* \"#utility.yul\":2993:2994   */\n      dup1\n        /* \"#utility.yul\":2986:2998   */\n      revert\n        /* \"#utility.yul\":2937:3000   */\n    tag_97:\n        /* \"#utility.yul\":2884:3006   */\n      pop\n      jump\t// out\n        /* \"#utility.yul\":3012:3151   */\n    tag_39:\n        /* \"#utility.yul\":3058:3063   */\n      0x00\n        /* \"#utility.yul\":3096:3102   */\n      dup2\n        /* \"#utility.yul\":3083:3103   */\n      calldataload\n        /* \"#utility.yul\":3074:3103   */\n      swap1\n      pop\n        /* \"#utility.yul\":3112:3145   */\n      tag_99\n        /* \"#utility.yul\":3139:3144   */\n      dup2\n        /* \"#utility.yul\":3112:3145   */\n      tag_38\n      jump\t// in\n    tag_99:\n        /* \"#utility.yul\":3012:3151   */\n      swap3\n      swap2\n      pop\n      pop\n      jump\t// out\n        /* \"#utility.yul\":3157:3283   */\n    tag_40:\n        /* \"#utility.yul\":3194:3201   */\n      0x00\n        /* \"#utility.yul\":3234:3276   */\n      0xffffffffffffffffffffffffffffffffffffffff\n        /* \"#utility.yul\":3227:3232   */\n      dup3\n        /* \"#utility.yul\":3223:3277   */\n      and\n        /* \"#utility.yul\":3212:3277   */\n      swap1\n      pop\n        /* \"#utility.yul\":3157:3283   */\n      swap2\n      swap1\n      pop\n      jump\t// out\n        /* \"#utility.yul\":3289:3385   */\n    tag_41:\n        /* \"#utility.yul\":3326:3333   */\n      0x00\n        /* \"#utility.yul\":3355:3379   */\n      tag_102\n        /* \"#utility.yul\":3373:3378   */\n      dup3\n        /* \"#utility.yul\":3355:3379   */\n      tag_40\n      jump\t// in\n    tag_102:\n        /* \"#utility.yul\":3344:3379   */\n      swap1\n      pop\n        /* \"#utility.yul\":3289:3385   */\n      swap2\n      swap1\n      pop\n      jump\t// out\n        /* \"#utility.yul\":3391:3513   */\n    tag_42:\n        /* \"#utility.yul\":3464:3488   */\n      tag_104\n        /* \"#utility.yul\":3482:3487   */\n      dup2\n        /* \"#utility.yul\":3464:3488   */\n      tag_41\n      jump\t// in\n    tag_104:\n        /* \"#utility.yul\":3457:3462   */\n      dup2\n        /* \"#utility.yul\":3454:3489   */\n      eq\n        /* \"#utility.yul\":3444:3507   */\n      tag_105\n      jumpi\n        /* \"#utility.yul\":3503:3504   */\n      0x00\n        /* \"#utility.yul\":3500:3501   */\n      dup1\n        /* \"#utility.yul\":3493:3505   */\n      revert\n        /* \"#utility.yul\":3444:3507   */\n    tag_105:\n        /* \"#utility.yul\":3391:3513   */\n      pop\n      jump\t// out\n        /* \"#utility.yul\":3519:3658   */\n    tag_43:\n        /* \"#utility.yul\":3565:3570   */\n      0x00\n        /* \"#utility.yul\":3603:3609   */\n      dup2\n        /* \"#utility.yul\":3590:3610   */\n      calldataload\n        /* \"#utility.yul\":3581:3610   */\n      swap1\n      pop\n        /* \"#utility.yul\":3619:3652   */\n      tag_107\n        /* \"#utility.yul\":3646:3651   */\n      dup2\n        /* \"#utility.yul\":3619:3652   */\n      tag_42\n      jump\t// in\n    tag_107:\n        /* \"#utility.yul\":3519:3658   */\n      swap3\n      swap2\n      pop\n      pop\n      jump\t// out\n        /* \"#utility.yul\":3693:4766   */\n    tag_44:\n        /* \"#utility.yul\":3772:3777   */\n      0x00\n        /* \"#utility.yul\":3816:3820   */\n      0x80\n        /* \"#utility.yul\":3804:3813   */\n      dup3\n        /* \"#utility.yul\":3799:3802   */\n      dup5\n        /* \"#utility.yul\":3795:3814   */\n      sub\n        /* \"#utility.yul\":3791:3821   */\n      slt\n        /* \"#utility.yul\":3788:3905   */\n      iszero\n      tag_109\n      jumpi\n        /* \"#utility.yul\":3824:3903   */\n      tag_110\n      tag_25\n      jump\t// in\n    tag_110:\n        /* \"#utility.yul\":3788:3905   */\n    tag_109:\n        /* \"#utility.yul\":3923:3944   */\n      tag_111\n        /* \"#utility.yul\":3939:3943   */\n      0x80\n        /* \"#utility.yul\":3923:3944   */\n      tag_29\n      jump\t// in\n    tag_111:\n        /* \"#utility.yul\":3914:3944   */\n      swap1\n      pop\n        /* \"#utility.yul\":4034:4035   */\n      0x00\n        /* \"#utility.yul\":4023:4032   */\n      dup3\n        /* \"#utility.yul\":4019:4036   */\n      add\n        /* \"#utility.yul\":4006:4037   */\n      calldataload\n        /* \"#utility.yul\":4064:4082   */\n      0xffffffffffffffff\n        /* \"#utility.yul\":4056:4062   */\n      dup2\n        /* \"#utility.yul\":4053:4083   */\n      gt\n        /* \"#utility.yul\":4050:4167   */\n      iszero\n      tag_112\n      jumpi\n        /* \"#utility.yul\":4086:4165   */\n      tag_113\n      tag_30\n      jump\t// in\n    tag_113:\n        /* \"#utility.yul\":4050:4167   */\n    tag_112:\n        /* \"#utility.yul\":4206:4265   */\n      tag_114\n        /* \"#utility.yul\":4261:4264   */\n      dup5\n        /* \"#utility.yul\":4252:4258   */\n      dup3\n        /* \"#utility.yul\":4241:4250   */\n      dup6\n        /* \"#utility.yul\":4237:4259   */\n      add\n        /* \"#utility.yul\":4206:4265   */\n      tag_36\n      jump\t// in\n    tag_114:\n        /* \"#utility.yul\":4199:4203   */\n      0x00\n        /* \"#utility.yul\":4192:4197   */\n      dup4\n        /* \"#utility.yul\":4188:4204   */\n      add\n        /* \"#utility.yul\":4181:4266   */\n      mstore\n        /* \"#utility.yul\":3954:4277   */\n      pop\n        /* \"#utility.yul\":4337:4339   */\n      0x20\n        /* \"#utility.yul\":4378:4427   */\n      tag_115\n        /* \"#utility.yul\":4423:4426   */\n      dup5\n        /* \"#utility.yul\":4414:4420   */\n      dup3\n        /* \"#utility.yul\":4403:4412   */\n      dup6\n        /* \"#utility.yul\":4399:4421   */\n      add\n        /* \"#utility.yul\":4378:4427   */\n      tag_39\n      jump\t// in\n    tag_115:\n        /* \"#utility.yul\":4371:4375   */\n      0x20\n        /* \"#utility.yul\":4364:4369   */\n      dup4\n        /* \"#utility.yul\":4360:4376   */\n      add\n        /* \"#utility.yul\":4353:4428   */\n      mstore\n        /* \"#utility.yul\":4287:4439   */\n      pop\n        /* \"#utility.yul\":4498:4500   */\n      0x40\n        /* \"#utility.yul\":4539:4588   */\n      tag_116\n        /* \"#utility.yul\":4584:4587   */\n      dup5\n        /* \"#utility.yul\":4575:4581   */\n      dup3\n        /* \"#utility.yul\":4564:4573   */\n      dup6\n        /* \"#utility.yul\":4560:4582   */\n      add\n        /* \"#utility.yul\":4539:4588   */\n      tag_43\n      jump\t// in\n    tag_116:\n        /* \"#utility.yul\":4532:4536   */\n      0x40\n        /* \"#utility.yul\":4525:4530   */\n      dup4\n        /* \"#utility.yul\":4521:4537   */\n      add\n        /* \"#utility.yul\":4514:4589   */\n      mstore\n        /* \"#utility.yul\":4449:4600   */\n      pop\n        /* \"#utility.yul\":4657:4659   */\n      0x60\n        /* \"#utility.yul\":4698:4747   */\n      tag_117\n        /* \"#utility.yul\":4743:4746   */\n      dup5\n        /* \"#utility.yul\":4734:4740   */\n      dup3\n        /* \"#utility.yul\":4723:4732   */\n      dup6\n        /* \"#utility.yul\":4719:4741   */\n      add\n        /* \"#utility.yul\":4698:4747   */\n      tag_43\n      jump\t// in\n    tag_117:\n        /* \"#utility.yul\":4691:4695   */\n      0x60\n        /* \"#utility.yul\":4684:4689   */\n      dup4\n        /* \"#utility.yul\":4680:4696   */\n      add\n        /* \"#utility.yul\":4673:4748   */\n      mstore\n        /* \"#utility.yul\":4610:4759   */\n      pop\n        /* \"#utility.yul\":3693:4766   */\n      swap3\n      swap2\n      pop\n      pop\n      jump\t// out\n        /* \"#utility.yul\":4772:4858   */\n    tag_45:\n        /* \"#utility.yul\":4807:4814   */\n      0x00\n        /* \"#utility.yul\":4847:4851   */\n      0xff\n        /* \"#utility.yul\":4840:4845   */\n      dup3\n        /* \"#utility.yul\":4836:4852   */\n      and\n        /* \"#utility.yul\":4825:4852   */\n      swap1\n      pop\n        /* \"#utility.yul\":4772:4858   */\n      swap2\n      swap1\n      pop\n      jump\t// out\n        /* \"#utility.yul\":4864:4982   */\n    tag_46:\n        /* \"#utility.yul\":4935:4957   */\n      tag_120\n        /* \"#utility.yul\":4951:4956   */\n      dup2\n        /* \"#utility.yul\":4935:4957   */\n      tag_45\n      jump\t// in\n    tag_120:\n        /* \"#utility.yul\":4928:4933   */\n      dup2\n        /* \"#utility.yul\":4925:4958   */\n      eq\n        /* \"#utility.yul\":4915:4976   */\n      tag_121\n      jumpi\n        /* \"#utility.yul\":4972:4973   */\n      0x00\n        /* \"#utility.yul\":4969:4970   */\n      dup1\n        /* \"#utility.yul\":4962:4974   */\n      revert\n        /* \"#utility.yul\":4915:4976   */\n    tag_121:\n        /* \"#utility.yul\":4864:4982   */\n      pop\n      jump\t// out\n        /* \"#utility.yul\":4988:5123   */\n    tag_47:\n        /* \"#utility.yul\":5032:5037   */\n      0x00\n        /* \"#utility.yul\":5070:5076   */\n      dup2\n        /* \"#utility.yul\":5057:5077   */\n      calldataload\n        /* \"#utility.yul\":5048:5077   */\n      swap1\n      pop\n        /* \"#utility.yul\":5086:5117   */\n      tag_123\n        /* \"#utility.yul\":5111:5116   */\n      dup2\n        /* \"#utility.yul\":5086:5117   */\n      tag_46\n      jump\t// in\n    tag_123:\n        /* \"#utility.yul\":4988:5123   */\n      swap3\n      swap2\n      pop\n      pop\n      jump\t// out\n        /* \"#utility.yul\":5129:5206   */\n    tag_48:\n        /* \"#utility.yul\":5166:5173   */\n      0x00\n        /* \"#utility.yul\":5195:5200   */\n      dup2\n        /* \"#utility.yul\":5184:5200   */\n      swap1\n      pop\n        /* \"#utility.yul\":5129:5206   */\n      swap2\n      swap1\n      pop\n      jump\t// out\n        /* \"#utility.yul\":5212:5334   */\n    tag_49:\n        /* \"#utility.yul\":5285:5309   */\n      tag_126\n        /* \"#utility.yul\":5303:5308   */\n      dup2\n        /* \"#utility.yul\":5285:5309   */\n      tag_48\n      jump\t// in\n    tag_126:\n        /* \"#utility.yul\":5278:5283   */\n      dup2\n        /* \"#utility.yul\":5275:5310   */\n      eq\n        /* \"#utility.yul\":5265:5328   */\n      tag_127\n      jumpi\n        /* \"#utility.yul\":5324:5325   */\n      0x00\n        /* \"#utility.yul\":5321:5322   */\n      dup1\n        /* \"#utility.yul\":5314:5326   */\n      revert\n        /* \"#utility.yul\":5265:5328   */\n    tag_127:\n        /* \"#utility.yul\":5212:5334   */\n      pop\n      jump\t// out\n        /* \"#utility.yul\":5340:5479   */\n    tag_50:\n        /* \"#utility.yul\":5386:5391   */\n      0x00\n        /* \"#utility.yul\":5424:5430   */\n      dup2\n        /* \"#utility.yul\":5411:5431   */\n      calldataload\n        /* \"#utility.yul\":5402:5431   */\n      swap1\n      pop\n        /* \"#utility.yul\":5440:5473   */\n      tag_129\n        /* \"#utility.yul\":5467:5472   */\n      dup2\n        /* \"#utility.yul\":5440:5473   */\n      tag_49\n      jump\t// in\n    tag_129:\n        /* \"#utility.yul\":5340:5479   */\n      swap3\n      swap2\n      pop\n      pop\n      jump\t// out\n        /* \"#utility.yul\":5485:6466   */\n    tag_6:\n        /* \"#utility.yul\":5599:5605   */\n      0x00\n        /* \"#utility.yul\":5607:5613   */\n      dup1\n        /* \"#utility.yul\":5615:5621   */\n      0x00\n        /* \"#utility.yul\":5623:5629   */\n      dup1\n        /* \"#utility.yul\":5672:5675   */\n      0x80\n        /* \"#utility.yul\":5660:5669   */\n      dup6\n        /* \"#utility.yul\":5651:5658   */\n      dup8\n        /* \"#utility.yul\":5647:5670   */\n      sub\n        /* \"#utility.yul\":5643:5676   */\n      slt\n        /* \"#utility.yul\":5640:5760   */\n      iszero\n      tag_131\n      jumpi\n        /* \"#utility.yul\":5679:5758   */\n      tag_132\n      tag_23\n      jump\t// in\n    tag_132:\n        /* \"#utility.yul\":5640:5760   */\n    tag_131:\n        /* \"#utility.yul\":5827:5828   */\n      0x00\n        /* \"#utility.yul\":5816:5825   */\n      dup6\n        /* \"#utility.yul\":5812:5829   */\n      add\n        /* \"#utility.yul\":5799:5830   */\n      calldataload\n        /* \"#utility.yul\":5857:5875   */\n      0xffffffffffffffff\n        /* \"#utility.yul\":5849:5855   */\n      dup2\n        /* \"#utility.yul\":5846:5876   */\n      gt\n        /* \"#utility.yul\":5843:5960   */\n      iszero\n      tag_133\n      jumpi\n        /* \"#utility.yul\":5879:5958   */\n      tag_134\n      tag_24\n      jump\t// in\n    tag_134:\n        /* \"#utility.yul\":5843:5960   */\n    tag_133:\n        /* \"#utility.yul\":5984:6067   */\n      tag_135\n        /* \"#utility.yul\":6059:6066   */\n      dup8\n        /* \"#utility.yul\":6050:6056   */\n      dup3\n        /* \"#utility.yul\":6039:6048   */\n      dup9\n        /* \"#utility.yul\":6035:6057   */\n      add\n        /* \"#utility.yul\":5984:6067   */\n      tag_44\n      jump\t// in\n    tag_135:\n        /* \"#utility.yul\":5974:6067   */\n      swap5\n      pop\n        /* \"#utility.yul\":5770:6077   */\n      pop\n        /* \"#utility.yul\":6116:6118   */\n      0x20\n        /* \"#utility.yul\":6142:6193   */\n      tag_136\n        /* \"#utility.yul\":6185:6192   */\n      dup8\n        /* \"#utility.yul\":6176:6182   */\n      dup3\n        /* \"#utility.yul\":6165:6174   */\n      dup9\n        /* \"#utility.yul\":6161:6183   */\n      add\n        /* \"#utility.yul\":6142:6193   */\n      tag_47\n      jump\t// in\n    tag_136:\n        /* \"#utility.yul\":6132:6193   */\n      swap4\n      pop\n        /* \"#utility.yul\":6087:6203   */\n      pop\n        /* \"#utility.yul\":6242:6244   */\n      0x40\n        /* \"#utility.yul\":6268:6321   */\n      tag_137\n        /* \"#utility.yul\":6313:6320   */\n      dup8\n        /* \"#utility.yul\":6304:6310   */\n      dup3\n        /* \"#utility.yul\":6293:6302   */\n      dup9\n        /* \"#utility.yul\":6289:6311   */\n      add\n        /* \"#utility.yul\":6268:6321   */\n      tag_50\n      jump\t// in\n    tag_137:\n        /* \"#utility.yul\":6258:6321   */\n      swap3\n      pop\n        /* \"#utility.yul\":6213:6331   */\n      pop\n        /* \"#utility.yul\":6370:6372   */\n      0x60\n        /* \"#utility.yul\":6396:6449   */\n      tag_138\n        /* \"#utility.yul\":6441:6448   */\n      dup8\n        /* \"#utility.yul\":6432:6438   */\n      dup3\n        /* \"#utility.yul\":6421:6430   */\n      dup9\n        /* \"#utility.yul\":6417:6439   */\n      add\n        /* \"#utility.yul\":6396:6449   */\n      tag_50\n      jump\t// in\n    tag_138:\n        /* \"#utility.yul\":6386:6449   */\n      swap2\n      pop\n        /* \"#utility.yul\":6341:6459   */\n      pop\n        /* \"#utility.yul\":5485:6466   */\n      swap3\n      swap6\n      swap2\n      swap5\n      pop\n      swap3\n      pop\n      jump\t// out\n        /* \"#utility.yul\":6472:6562   */\n    tag_51:\n        /* \"#utility.yul\":6506:6513   */\n      0x00\n        /* \"#utility.yul\":6549:6554   */\n      dup2\n        /* \"#utility.yul\":6542:6555   */\n      iszero\n        /* \"#utility.yul\":6535:6556   */\n      iszero\n        /* \"#utility.yul\":6524:6556   */\n      swap1\n      pop\n        /* \"#utility.yul\":6472:6562   */\n      swap2\n      swap1\n      pop\n      jump\t// out\n        /* \"#utility.yul\":6568:6677   */\n    tag_52:\n        /* \"#utility.yul\":6649:6670   */\n      tag_141\n        /* \"#utility.yul\":6664:6669   */\n      dup2\n        /* \"#utility.yul\":6649:6670   */\n      tag_51\n      jump\t// in\n    tag_141:\n        /* \"#utility.yul\":6644:6647   */\n      dup3\n        /* \"#utility.yul\":6637:6671   */\n      mstore\n        /* \"#utility.yul\":6568:6677   */\n      pop\n      pop\n      jump\t// out\n        /* \"#utility.yul\":6683:6893   */\n    tag_9:\n        /* \"#utility.yul\":6770:6774   */\n      0x00\n        /* \"#utility.yul\":6808:6810   */\n      0x20\n        /* \"#utility.yul\":6797:6806   */\n      dup3\n        /* \"#utility.yul\":6793:6811   */\n      add\n        /* \"#utility.yul\":6785:6811   */\n      swap1\n      pop\n        /* \"#utility.yul\":6821:6886   */\n      tag_143\n        /* \"#utility.yul\":6883:6884   */\n      0x00\n        /* \"#utility.yul\":6872:6881   */\n      dup4\n        /* \"#utility.yul\":6868:6885   */\n      add\n        /* \"#utility.yul\":6859:6865   */\n      dup5\n        /* \"#utility.yul\":6821:6886   */\n      tag_52\n      jump\t// in\n    tag_143:\n        /* \"#utility.yul\":6683:6893   */\n      swap3\n      swap2\n      pop\n      pop\n      jump\t// out\n        /* \"#utility.yul\":6899:7047   */\n    tag_53:\n        /* \"#utility.yul\":7001:7012   */\n      0x00\n        /* \"#utility.yul\":7038:7041   */\n      dup2\n        /* \"#utility.yul\":7023:7041   */\n      swap1\n      pop\n        /* \"#utility.yul\":6899:7047   */\n      swap3\n      swap2\n      pop\n      pop\n      jump\t// out\n        /* \"#utility.yul\":7053:7267   */\n    tag_54:\n        /* \"#utility.yul\":7193:7259   */\n      0x1901000000000000000000000000000000000000000000000000000000000000\n        /* \"#utility.yul\":7189:7190   */\n      0x00\n        /* \"#utility.yul\":7181:7187   */\n      dup3\n        /* \"#utility.yul\":7177:7191   */\n      add\n        /* \"#utility.yul\":7170:7260   */\n      mstore\n        /* \"#utility.yul\":7053:7267   */\n      pop\n      jump\t// out\n        /* \"#utility.yul\":7273:7673   */\n    tag_55:\n        /* \"#utility.yul\":7433:7436   */\n      0x00\n        /* \"#utility.yul\":7454:7538   */\n      tag_147\n        /* \"#utility.yul\":7536:7537   */\n      0x02\n        /* \"#utility.yul\":7531:7534   */\n      dup4\n        /* \"#utility.yul\":7454:7538   */\n      tag_53\n      jump\t// in\n    tag_147:\n        /* \"#utility.yul\":7447:7538   */\n      swap2\n      pop\n        /* \"#utility.yul\":7547:7640   */\n      tag_148\n        /* \"#utility.yul\":7636:7639   */\n      dup3\n        /* \"#utility.yul\":7547:7640   */\n      tag_54\n      jump\t// in\n    tag_148:\n        /* \"#utility.yul\":7665:7666   */\n      0x02\n        /* \"#utility.yul\":7660:7663   */\n      dup3\n        /* \"#utility.yul\":7656:7667   */\n      add\n        /* \"#utility.yul\":7649:7667   */\n      swap1\n      pop\n        /* \"#utility.yul\":7273:7673   */\n      swap2\n      swap1\n      pop\n      jump\t// out\n        /* \"#utility.yul\":7679:7758   */\n    tag_56:\n        /* \"#utility.yul\":7718:7725   */\n      0x00\n        /* \"#utility.yul\":7747:7752   */\n      dup2\n        /* \"#utility.yul\":7736:7752   */\n      swap1\n      pop\n        /* \"#utility.yul\":7679:7758   */\n      swap2\n      swap1\n      pop\n      jump\t// out\n        /* \"#utility.yul\":7764:7921   */\n    tag_57:\n        /* \"#utility.yul\":7869:7914   */\n      tag_151\n        /* \"#utility.yul\":7889:7913   */\n      tag_152\n        /* \"#utility.yul\":7907:7912   */\n      dup3\n        /* \"#utility.yul\":7889:7913   */\n      tag_48\n      jump\t// in\n    tag_152:\n        /* \"#utility.yul\":7869:7914   */\n      tag_56\n      jump\t// in\n    tag_151:\n        /* \"#utility.yul\":7864:7867   */\n      dup3\n        /* \"#utility.yul\":7857:7915   */\n      mstore\n        /* \"#utility.yul\":7764:7921   */\n      pop\n      pop\n      jump\t// out\n        /* \"#utility.yul\":7927:8590   */\n    tag_14:\n        /* \"#utility.yul\":8168:8171   */\n      0x00\n        /* \"#utility.yul\":8190:8338   */\n      tag_154\n        /* \"#utility.yul\":8334:8337   */\n      dup3\n        /* \"#utility.yul\":8190:8338   */\n      tag_55\n      jump\t// in\n    tag_154:\n        /* \"#utility.yul\":8183:8338   */\n      swap2\n      pop\n        /* \"#utility.yul\":8348:8423   */\n      tag_155\n        /* \"#utility.yul\":8419:8422   */\n      dup3\n        /* \"#utility.yul\":8410:8416   */\n      dup6\n        /* \"#utility.yul\":8348:8423   */\n      tag_57\n      jump\t// in\n    tag_155:\n        /* \"#utility.yul\":8448:8450   */\n      0x20\n        /* \"#utility.yul\":8443:8446   */\n      dup3\n        /* \"#utility.yul\":8439:8451   */\n      add\n        /* \"#utility.yul\":8432:8451   */\n      swap2\n      pop\n        /* \"#utility.yul\":8461:8536   */\n      tag_156\n        /* \"#utility.yul\":8532:8535   */\n      dup3\n        /* \"#utility.yul\":8523:8529   */\n      dup5\n        /* \"#utility.yul\":8461:8536   */\n      tag_57\n      jump\t// in\n    tag_156:\n        /* \"#utility.yul\":8561:8563   */\n      0x20\n        /* \"#utility.yul\":8556:8559   */\n      dup3\n        /* \"#utility.yul\":8552:8564   */\n      add\n        /* \"#utility.yul\":8545:8564   */\n      swap2\n      pop\n        /* \"#utility.yul\":8581:8584   */\n      dup2\n        /* \"#utility.yul\":8574:8584   */\n      swap1\n      pop\n        /* \"#utility.yul\":7927:8590   */\n      swap4\n      swap3\n      pop\n      pop\n      pop\n      jump\t// out\n        /* \"#utility.yul\":8596:8714   */\n    tag_58:\n        /* \"#utility.yul\":8683:8707   */\n      tag_158\n        /* \"#utility.yul\":8701:8706   */\n      dup2\n        /* \"#utility.yul\":8683:8707   */\n      tag_48\n      jump\t// in\n    tag_158:\n        /* \"#utility.yul\":8678:8681   */\n      dup3\n        /* \"#utility.yul\":8671:8708   */\n      mstore\n        /* \"#utility.yul\":8596:8714   */\n      pop\n      pop\n      jump\t// out\n        /* \"#utility.yul\":8720:8832   */\n    tag_59:\n        /* \"#utility.yul\":8803:8825   */\n      tag_160\n        /* \"#utility.yul\":8819:8824   */\n      dup2\n        /* \"#utility.yul\":8803:8825   */\n      tag_45\n      jump\t// in\n    tag_160:\n        /* \"#utility.yul\":8798:8801   */\n      dup3\n        /* \"#utility.yul\":8791:8826   */\n      mstore\n        /* \"#utility.yul\":8720:8832   */\n      pop\n      pop\n      jump\t// out\n        /* \"#utility.yul\":8838:9383   */\n    tag_16:\n        /* \"#utility.yul\":9011:9015   */\n      0x00\n        /* \"#utility.yul\":9049:9052   */\n      0x80\n        /* \"#utility.yul\":9038:9047   */\n      dup3\n        /* \"#utility.yul\":9034:9053   */\n      add\n        /* \"#utility.yul\":9026:9053   */\n      swap1\n      pop\n        /* \"#utility.yul\":9063:9134   */\n      tag_162\n        /* \"#utility.yul\":9131:9132   */\n      0x00\n        /* \"#utility.yul\":9120:9129   */\n      dup4\n        /* \"#utility.yul\":9116:9133   */\n      add\n        /* \"#utility.yul\":9107:9113   */\n      dup8\n        /* \"#utility.yul\":9063:9134   */\n      tag_58\n      jump\t// in\n    tag_162:\n        /* \"#utility.yul\":9144:9212   */\n      tag_163\n        /* \"#utility.yul\":9208:9210   */\n      0x20\n        /* \"#utility.yul\":9197:9206   */\n      dup4\n        /* \"#utility.yul\":9193:9211   */\n      add\n        /* \"#utility.yul\":9184:9190   */\n      dup7\n        /* \"#utility.yul\":9144:9212   */\n      tag_59\n      jump\t// in\n    tag_163:\n        /* \"#utility.yul\":9222:9294   */\n      tag_164\n        /* \"#utility.yul\":9290:9292   */\n      0x40\n        /* \"#utility.yul\":9279:9288   */\n      dup4\n        /* \"#utility.yul\":9275:9293   */\n      add\n        /* \"#utility.yul\":9266:9272   */\n      dup6\n        /* \"#utility.yul\":9222:9294   */\n      tag_58\n      jump\t// in\n    tag_164:\n        /* \"#utility.yul\":9304:9376   */\n      tag_165\n        /* \"#utility.yul\":9372:9374   */\n      0x60\n        /* \"#utility.yul\":9361:9370   */\n      dup4\n        /* \"#utility.yul\":9357:9375   */\n      add\n        /* \"#utility.yul\":9348:9354   */\n      dup5\n        /* \"#utility.yul\":9304:9376   */\n      tag_58\n      jump\t// in\n    tag_165:\n        /* \"#utility.yul\":8838:9383   */\n      swap6\n      swap5\n      pop\n      pop\n      pop\n      pop\n      pop\n      jump\t// out\n        /* \"#utility.yul\":9389:9507   */\n    tag_60:\n        /* \"#utility.yul\":9476:9500   */\n      tag_167\n        /* \"#utility.yul\":9494:9499   */\n      dup2\n        /* \"#utility.yul\":9476:9500   */\n      tag_37\n      jump\t// in\n    tag_167:\n        /* \"#utility.yul\":9471:9474   */\n      dup3\n        /* \"#utility.yul\":9464:9501   */\n      mstore\n        /* \"#utility.yul\":9389:9507   */\n      pop\n      pop\n      jump\t// out\n        /* \"#utility.yul\":9513:9631   */\n    tag_61:\n        /* \"#utility.yul\":9600:9624   */\n      tag_169\n        /* \"#utility.yul\":9618:9623   */\n      dup2\n        /* \"#utility.yul\":9600:9624   */\n      tag_41\n      jump\t// in\n    tag_169:\n        /* \"#utility.yul\":9595:9598   */\n      dup3\n        /* \"#utility.yul\":9588:9625   */\n      mstore\n        /* \"#utility.yul\":9513:9631   */\n      pop\n      pop\n      jump\t// out\n        /* \"#utility.yul\":9637:10301   */\n    tag_21:\n        /* \"#utility.yul\":9842:9846   */\n      0x00\n        /* \"#utility.yul\":9880:9883   */\n      0xa0\n        /* \"#utility.yul\":9869:9878   */\n      dup3\n        /* \"#utility.yul\":9865:9884   */\n      add\n        /* \"#utility.yul\":9857:9884   */\n      swap1\n      pop\n        /* \"#utility.yul\":9894:9965   */\n      tag_171\n        /* \"#utility.yul\":9962:9963   */\n      0x00\n        /* \"#utility.yul\":9951:9960   */\n      dup4\n        /* \"#utility.yul\":9947:9964   */\n      add\n        /* \"#utility.yul\":9938:9944   */\n      dup9\n        /* \"#utility.yul\":9894:9965   */\n      tag_58\n      jump\t// in\n    tag_171:\n        /* \"#utility.yul\":9975:10047   */\n      tag_172\n        /* \"#utility.yul\":10043:10045   */\n      0x20\n        /* \"#utility.yul\":10032:10041   */\n      dup4\n        /* \"#utility.yul\":10028:10046   */\n      add\n        /* \"#utility.yul\":10019:10025   */\n      dup8\n        /* \"#utility.yul\":9975:10047   */\n      tag_58\n      jump\t// in\n    tag_172:\n        /* \"#utility.yul\":10057:10129   */\n      tag_173\n        /* \"#utility.yul\":10125:10127   */\n      0x40\n        /* \"#utility.yul\":10114:10123   */\n      dup4\n        /* \"#utility.yul\":10110:10128   */\n      add\n        /* \"#utility.yul\":10101:10107   */\n      dup7\n        /* \"#utility.yul\":10057:10129   */\n      tag_60\n      jump\t// in\n    tag_173:\n        /* \"#utility.yul\":10139:10211   */\n      tag_174\n        /* \"#utility.yul\":10207:10209   */\n      0x60\n        /* \"#utility.yul\":10196:10205   */\n      dup4\n        /* \"#utility.yul\":10192:10210   */\n      add\n        /* \"#utility.yul\":10183:10189   */\n      dup6\n        /* \"#utility.yul\":10139:10211   */\n      tag_61\n      jump\t// in\n    tag_174:\n        /* \"#utility.yul\":10221:10294   */\n      tag_175\n        /* \"#utility.yul\":10289:10292   */\n      0x80\n        /* \"#utility.yul\":10278:10287   */\n      dup4\n        /* \"#utility.yul\":10274:10293   */\n      add\n        /* \"#utility.yul\":10265:10271   */\n      dup5\n        /* \"#utility.yul\":10221:10294   */\n      tag_61\n      jump\t// in\n    tag_175:\n        /* \"#utility.yul\":9637:10301   */\n      swap7\n      swap6\n      pop\n      pop\n      pop\n      pop\n      pop\n      pop\n      jump\t// out\n    stop\n    data_ab1d09716015dd330c33c7d36221c0627e8b83dd47502e0891612a8cd91fda2d 4578616d706c654d65737361676528737472696e67206d6573736167652c75696e743235362076616c75652c616464726573732066726f6d2c6164647265737320746f29\n\n    auxdata: 0xa2646970667358221220d05a873d8576e6ce5a69b8e64e287df9377f26e49f27610a7584db39ad1c493764736f6c634300081a0033\n}\n",
				"bytecode": {
					"linkReferences": {},
					"object": "608060405234801561000f575f80fd5b506100e56040518060a001604052806040518060400160405280600d81526020017f4549503731324578616d706c650000000000000000000000000000000000000081525081526020016040518060400160405280600181526020017f310000000000000000000000000000000000000000000000000000000000000081525081526020014681526020013073ffffffffffffffffffffffffffffffffffffffff1681526020017f70736575646f2d746578740000000000000000000000000000000000000000008152506100ef60201b60201c565b5f81905550610237565b5f7fd87cd6ef79d4e2b95e15ce8abf732db51ec771f1ca2edccf22a46c729ac56472825f01518051906020012083602001518051906020012084604001518560600151866080015160405160200161014c969594939291906101d8565b604051602081830303815290604052805190602001209050919050565b5f819050919050565b61017b81610169565b82525050565b5f819050919050565b61019381610181565b82525050565b5f73ffffffffffffffffffffffffffffffffffffffff82169050919050565b5f6101c282610199565b9050919050565b6101d2816101b8565b82525050565b5f60c0820190506101eb5f830189610172565b6101f86020830188610172565b6102056040830187610172565b610212606083018661018a565b61021f60808301856101c9565b61022c60a0830184610172565b979650505050505050565b610710806102445f395ff3fe608060405234801561000f575f80fd5b5060043610610029575f3560e01c80639fd7124e1461002d575b5f80fd5b61004760048036038101906100429190610469565b61005d565b6040516100549190610503565b60405180910390f35b5f805f5461006a87610121565b60405160200161007b929190610590565b6040516020818303038152906040528051906020012090505f6001828787876040515f81526020016040526040516100b694939291906105e4565b6020604051602081039080840390855afa1580156100d6573d5f803e3d5ffd5b505050602060405103519050866040015173ffffffffffffffffffffffffffffffffffffffff168173ffffffffffffffffffffffffffffffffffffffff161492505050949350505050565b5f6040518060800160405280604481526020016106976044913980519060200120825f015180519060200120836020015184604001518560600151604051602001610170959493929190610645565b604051602081830303815290604052805190602001209050919050565b5f604051905090565b5f80fd5b5f80fd5b5f80fd5b5f601f19601f8301169050919050565b7f4e487b71000000000000000000000000000000000000000000000000000000005f52604160045260245ffd5b6101e8826101a2565b810181811067ffffffffffffffff82111715610207576102066101b2565b5b80604052505050565b5f61021961018d565b905061022582826101df565b919050565b5f80fd5b5f80fd5b5f80fd5b5f67ffffffffffffffff8211156102505761024f6101b2565b5b610259826101a2565b9050602081019050919050565b828183375f83830152505050565b5f61028661028184610236565b610210565b9050828152602081018484840111156102a2576102a1610232565b5b6102ad848285610266565b509392505050565b5f82601f8301126102c9576102c861022e565b5b81356102d9848260208601610274565b91505092915050565b5f819050919050565b6102f4816102e2565b81146102fe575f80fd5b50565b5f8135905061030f816102eb565b92915050565b5f73ffffffffffffffffffffffffffffffffffffffff82169050919050565b5f61033e82610315565b9050919050565b61034e81610334565b8114610358575f80fd5b50565b5f8135905061036981610345565b92915050565b5f608082840312156103845761038361019e565b5b61038e6080610210565b90505f82013567ffffffffffffffff8111156103ad576103ac61022a565b5b6103b9848285016102b5565b5f8301525060206103cc84828501610301565b60208301525060406103e08482850161035b565b60408301525060606103f48482850161035b565b60608301525092915050565b5f60ff82169050919050565b61041581610400565b811461041f575f80fd5b50565b5f813590506104308161040c565b92915050565b5f819050919050565b61044881610436565b8114610452575f80fd5b50565b5f813590506104638161043f565b92915050565b5f805f806080858703121561048157610480610196565b5b5f85013567ffffffffffffffff81111561049e5761049d61019a565b5b6104aa8782880161036f565b94505060206104bb87828801610422565b93505060406104cc87828801610455565b92505060606104dd87828801610455565b91505092959194509250565b5f8115159050919050565b6104fd816104e9565b82525050565b5f6020820190506105165f8301846104f4565b92915050565b5f81905092915050565b7f19010000000000000000000000000000000000000000000000000000000000005f82015250565b5f61055a60028361051c565b915061056582610526565b600282019050919050565b5f819050919050565b61058a61058582610436565b610570565b82525050565b5f61059a8261054e565b91506105a68285610579565b6020820191506105b68284610579565b6020820191508190509392505050565b6105cf81610436565b82525050565b6105de81610400565b82525050565b5f6080820190506105f75f8301876105c6565b61060460208301866105d5565b61061160408301856105c6565b61061e60608301846105c6565b95945050505050565b610630816102e2565b82525050565b61063f81610334565b82525050565b5f60a0820190506106585f8301886105c6565b61066560208301876105c6565b6106726040830186610627565b61067f6060830185610636565b61068c6080830184610636565b969550505050505056fe4578616d706c654d65737361676528737472696e67206d6573736167652c75696e743235362076616c75652c616464726573732066726f6d2c6164647265737320746f29a2646970667358221220d05a873d8576e6ce5a69b8e64e287df9377f26e49f27610a7584db39ad1c493764736f6c634300081a0033",
					"opcodes": "PUSH1 0x80 PUSH1 0x40 MSTORE CALLVALUE DUP1 ISZERO PUSH2 0xF JUMPI PUSH0 DUP1 REVERT JUMPDEST POP PUSH2 0xE5 PUSH1 0x40 MLOAD DUP1 PUSH1 0xA0 ADD PUSH1 0x40 MSTORE DUP1 PUSH1 0x40 MLOAD DUP1 PUSH1 0x40 ADD PUSH1 0x40 MSTORE DUP1 PUSH1 0xD DUP2 MSTORE PUSH1 0x20 ADD PUSH32 0x4549503731324578616D706C6500000000000000000000000000000000000000 DUP2 MSTORE POP DUP2 MSTORE PUSH1 0x20 ADD PUSH1 0x40 MLOAD DUP1 PUSH1 0x40 ADD PUSH1 0x40 MSTORE DUP1 PUSH1 0x1 DUP2 MSTORE PUSH1 0x20 ADD PUSH32 0x3100000000000000000000000000000000000000000000000000000000000000 DUP2 MSTORE POP DUP2 MSTORE PUSH1 0x20 ADD CHAINID DUP2 MSTORE PUSH1 0x20 ADD ADDRESS PUSH20 0xFFFFFFFFFFFFFFFFFFFFFFFFFFFFFFFFFFFFFFFF AND DUP2 MSTORE PUSH1 0x20 ADD PUSH32 0x70736575646F2D74657874000000000000000000000000000000000000000000 DUP2 MSTORE POP PUSH2 0xEF PUSH1 0x20 SHL PUSH1 0x20 SHR JUMP JUMPDEST PUSH0 DUP2 SWAP1 SSTORE POP PUSH2 0x237 JUMP JUMPDEST PUSH0 PUSH32 0xD87CD6EF79D4E2B95E15CE8ABF732DB51EC771F1CA2EDCCF22A46C729AC56472 DUP3 PUSH0 ADD MLOAD DUP1 MLOAD SWAP1 PUSH1 0x20 ADD KECCAK256 DUP4 PUSH1 0x20 ADD MLOAD DUP1 MLOAD SWAP1 PUSH1 0x20 ADD KECCAK256 DUP5 PUSH1 0x40 ADD MLOAD DUP6 PUSH1 0x60 ADD MLOAD DUP7 PUSH1 0x80 ADD MLOAD PUSH1 0x40 MLOAD PUSH1 0x20 ADD PUSH2 0x14C SWAP7 SWAP6 SWAP5 SWAP4 SWAP3 SWAP2 SWAP1 PUSH2 0x1D8 JUMP JUMPDEST PUSH1 0x40 MLOAD PUSH1 0x20 DUP2 DUP4 SUB SUB DUP2 MSTORE SWAP1 PUSH1 0x40 MSTORE DUP1 MLOAD SWAP1 PUSH1 0x20 ADD KECCAK256 SWAP1 POP SWAP2 SWAP1 POP JUMP JUMPDEST PUSH0 DUP2 SWAP1 POP SWAP2 SWAP1 POP JUMP JUMPDEST PUSH2 0x17B DUP2 PUSH2 0x169 JUMP JUMPDEST DUP3 MSTORE POP POP JUMP JUMPDEST PUSH0 DUP2 SWAP1 POP SWAP2 SWAP1 POP JUMP JUMPDEST PUSH2 0x193 DUP2 PUSH2 0x181 JUMP JUMPDEST DUP3 MSTORE POP POP JUMP JUMPDEST PUSH0 PUSH20 0xFFFFFFFFFFFFFFFFFFFFFFFFFFFFFFFFFFFFFFFF DUP3 AND SWAP1 POP SWAP2 SWAP1 POP JUMP JUMPDEST PUSH0 PUSH2 0x1C2 DUP3 PUSH2 0x199 JUMP JUMPDEST SWAP1 POP SWAP2 SWAP1 POP JUMP JUMPDEST PUSH2 0x1D2 DUP2 PUSH2 0x1B8 JUMP JUMPDEST DUP3 MSTORE POP POP JUMP JUMPDEST PUSH0 PUSH1 0xC0 DUP3 ADD SWAP1 POP PUSH2 0x1EB PUSH0 DUP4 ADD DUP10 PUSH2 0x172 JUMP JUMPDEST PUSH2 0x1F8 PUSH1 0x20 DUP4 ADD DUP9 PUSH2 0x172 JUMP JUMPDEST PUSH2 0x205 PUSH1 0x40 DUP4 ADD DUP8 PUSH2 0x172 JUMP JUMPDEST PUSH2 0x212 PUSH1 0x60 DUP4 ADD DUP7 PUSH2 0x18A JUMP JUMPDEST PUSH2 0x21F PUSH1 0x80 DUP4 ADD DUP6 PUSH2 0x1C9 JUMP JUMPDEST PUSH2 0x22C PUSH1 0xA0 DUP4 ADD DUP5 PUSH2 0x172 JUMP JUMPDEST SWAP8 SWAP7 POP POP POP POP POP POP POP JUMP JUMPDEST PUSH2 0x710 DUP1 PUSH2 0x244 PUSH0 CODECOPY PUSH0 RETURN INVALID PUSH1 0x80 PUSH1 0x40 MSTORE CALLVALUE DUP1 ISZERO PUSH2 0xF JUMPI PUSH0 DUP1 REVERT JUMPDEST POP PUSH1 0x4 CALLDATASIZE LT PUSH2 0x29 JUMPI PUSH0 CALLDATALOAD PUSH1 0xE0 SHR DUP1 PUSH4 0x9FD7124E EQ PUSH2 0x2D JUMPI JUMPDEST PUSH0 DUP1 REVERT JUMPDEST PUSH2 0x47 PUSH1 0x4 DUP1 CALLDATASIZE SUB DUP2 ADD SWAP1 PUSH2 0x42 SWAP2 SWAP1 PUSH2 0x469 JUMP JUMPDEST PUSH2 0x5D JUMP JUMPDEST PUSH1 0x40 MLOAD PUSH2 0x54 SWAP2 SWAP1 PUSH2 0x503 JUMP JUMPDEST PUSH1 0x40 MLOAD DUP1 SWAP2 SUB SWAP1 RETURN JUMPDEST PUSH0 DUP1 PUSH0 SLOAD PUSH2 0x6A DUP8 PUSH2 0x121 JUMP JUMPDEST PUSH1 0x40 MLOAD PUSH1 0x20 ADD PUSH2 0x7B SWAP3 SWAP2 SWAP1 PUSH2 0x590 JUMP JUMPDEST PUSH1 0x40 MLOAD PUSH1 0x20 DUP2 DUP4 SUB SUB DUP2 MSTORE SWAP1 PUSH1 0x40 MSTORE DUP1 MLOAD SWAP1 PUSH1 0x20 ADD KECCAK256 SWAP1 POP PUSH0 PUSH1 0x1 DUP3 DUP8 DUP8 DUP8 PUSH1 0x40 MLOAD PUSH0 DUP2 MSTORE PUSH1 0x20 ADD PUSH1 0x40 MSTORE PUSH1 0x40 MLOAD PUSH2 0xB6 SWAP5 SWAP4 SWAP3 SWAP2 SWAP1 PUSH2 0x5E4 JUMP JUMPDEST PUSH1 0x20 PUSH1 0x40 MLOAD PUSH1 0x20 DUP2 SUB SWAP1 DUP1 DUP5 SUB SWAP1 DUP6 GAS STATICCALL ISZERO DUP1 ISZERO PUSH2 0xD6 JUMPI RETURNDATASIZE PUSH0 DUP1 RETURNDATACOPY RETURNDATASIZE PUSH0 REVERT JUMPDEST POP POP POP PUSH1 0x20 PUSH1 0x40 MLOAD SUB MLOAD SWAP1 POP DUP7 PUSH1 0x40 ADD MLOAD PUSH20 0xFFFFFFFFFFFFFFFFFFFFFFFFFFFFFFFFFFFFFFFF AND DUP2 PUSH20 0xFFFFFFFFFFFFFFFFFFFFFFFFFFFFFFFFFFFFFFFF AND EQ SWAP3 POP POP POP SWAP5 SWAP4 POP POP POP POP JUMP JUMPDEST PUSH0 PUSH1 0x40 MLOAD DUP1 PUSH1 0x80 ADD PUSH1 0x40 MSTORE DUP1 PUSH1 0x44 DUP2 MSTORE PUSH1 0x20 ADD PUSH2 0x697 PUSH1 0x44 SWAP2 CODECOPY DUP1 MLOAD SWAP1 PUSH1 0x20 ADD KECCAK256 DUP3 PUSH0 ADD MLOAD DUP1 MLOAD SWAP1 PUSH1 0x20 ADD KECCAK256 DUP4 PUSH1 0x20 ADD MLOAD DUP5 PUSH1 0x40 ADD MLOAD DUP6 PUSH1 0x60 ADD MLOAD PUSH1 0x40 MLOAD PUSH1 0x20 ADD PUSH2 0x170 SWAP6 SWAP5 SWAP4 SWAP3 SWAP2 SWAP1 PUSH2 0x645 JUMP JUMPDEST PUSH1 0x40 MLOAD PUSH1 0x20 DUP2 DUP4 SUB SUB DUP2 MSTORE SWAP1 PUSH1 0x40 MSTORE DUP1 MLOAD SWAP1 PUSH1 0x20 ADD KECCAK256 SWAP1 POP SWAP2 SWAP1 POP JUMP JUMPDEST PUSH0 PUSH1 0x40 MLOAD SWAP1 POP SWAP1 JUMP JUMPDEST PUSH0 DUP1 REVERT JUMPDEST PUSH0 DUP1 REVERT JUMPDEST PUSH0 DUP1 REVERT JUMPDEST PUSH0 PUSH1 0x1F NOT PUSH1 0x1F DUP4 ADD AND SWAP1 POP SWAP2 SWAP1 POP JUMP JUMPDEST PUSH32 0x4E487B7100000000000000000000000000000000000000000000000000000000 PUSH0 MSTORE PUSH1 0x41 PUSH1 0x4 MSTORE PUSH1 0x24 PUSH0 REVERT JUMPDEST PUSH2 0x1E8 DUP3 PUSH2 0x1A2 JUMP JUMPDEST DUP2 ADD DUP2 DUP2 LT PUSH8 0xFFFFFFFFFFFFFFFF DUP3 GT OR ISZERO PUSH2 0x207 JUMPI PUSH2 0x206 PUSH2 0x1B2 JUMP JUMPDEST JUMPDEST DUP1 PUSH1 0x40 MSTORE POP POP POP JUMP JUMPDEST PUSH0 PUSH2 0x219 PUSH2 0x18D JUMP JUMPDEST SWAP1 POP PUSH2 0x225 DUP3 DUP3 PUSH2 0x1DF JUMP JUMPDEST SWAP2 SWAP1 POP JUMP JUMPDEST PUSH0 DUP1 REVERT JUMPDEST PUSH0 DUP1 REVERT JUMPDEST PUSH0 DUP1 REVERT JUMPDEST PUSH0 PUSH8 0xFFFFFFFFFFFFFFFF DUP3 GT ISZERO PUSH2 0x250 JUMPI PUSH2 0x24F PUSH2 0x1B2 JUMP JUMPDEST JUMPDEST PUSH2 0x259 DUP3 PUSH2 0x1A2 JUMP JUMPDEST SWAP1 POP PUSH1 0x20 DUP2 ADD SWAP1 POP SWAP2 SWAP1 POP JUMP JUMPDEST DUP3 DUP2 DUP4 CALLDATACOPY PUSH0 DUP4 DUP4 ADD MSTORE POP POP POP JUMP JUMPDEST PUSH0 PUSH2 0x286 PUSH2 0x281 DUP5 PUSH2 0x236 JUMP JUMPDEST PUSH2 0x210 JUMP JUMPDEST SWAP1 POP DUP3 DUP2 MSTORE PUSH1 0x20 DUP2 ADD DUP5 DUP5 DUP5 ADD GT ISZERO PUSH2 0x2A2 JUMPI PUSH2 0x2A1 PUSH2 0x232 JUMP JUMPDEST JUMPDEST PUSH2 0x2AD DUP5 DUP3 DUP6 PUSH2 0x266 JUMP JUMPDEST POP SWAP4 SWAP3 POP POP POP JUMP JUMPDEST PUSH0 DUP3 PUSH1 0x1F DUP4 ADD SLT PUSH2 0x2C9 JUMPI PUSH2 0x2C8 PUSH2 0x22E JUMP JUMPDEST JUMPDEST DUP2 CALLDATALOAD PUSH2 0x2D9 DUP5 DUP3 PUSH1 0x20 DUP7 ADD PUSH2 0x274 JUMP JUMPDEST SWAP2 POP POP SWAP3 SWAP2 POP POP JUMP JUMPDEST PUSH0 DUP2 SWAP1 POP SWAP2 SWAP1 POP JUMP JUMPDEST PUSH2 0x2F4 DUP2 PUSH2 0x2E2 JUMP JUMPDEST DUP2 EQ PUSH2 0x2FE JUMPI PUSH0 DUP1 REVERT JUMPDEST POP JUMP JUMPDEST PUSH0 DUP2 CALLDATALOAD SWAP1 POP PUSH2 0x30F DUP2 PUSH2 0x2EB JUMP JUMPDEST SWAP3 SWAP2 POP POP JUMP JUMPDEST PUSH0 PUSH20 0xFFFFFFFFFFFFFFFFFFFFFFFFFFFFFFFFFFFFFFFF DUP3 AND SWAP1 POP SWAP2 SWAP1 POP JUMP JUMPDEST PUSH0 PUSH2 0x33E DUP3 PUSH2 0x315 JUMP JUMPDEST SWAP1 POP SWAP2 SWAP1 POP JUMP JUMPDEST PUSH2 0x34E DUP2 PUSH2 0x334 JUMP JUMPDEST DUP2 EQ PUSH2 0x358 JUMPI PUSH0 DUP1 REVERT JUMPDEST POP JUMP JUMPDEST PUSH0 DUP2 CALLDATALOAD SWAP1 POP PUSH2 0x369 DUP2 PUSH2 0x345 JUMP JUMPDEST SWAP3 SWAP2 POP POP JUMP JUMPDEST PUSH0 PUSH1 0x80 DUP3 DUP5 SUB SLT ISZERO PUSH2 0x384 JUMPI PUSH2 0x383 PUSH2 0x19E JUMP JUMPDEST JUMPDEST PUSH2 0x38E PUSH1 0x80 PUSH2 0x210 JUMP JUMPDEST SWAP1 POP PUSH0 DUP3 ADD CALLDATALOAD PUSH8 0xFFFFFFFFFFFFFFFF DUP2 GT ISZERO PUSH2 0x3AD JUMPI PUSH2 0x3AC PUSH2 0x22A JUMP JUMPDEST JUMPDEST PUSH2 0x3B9 DUP5 DUP3 DUP6 ADD PUSH2 0x2B5 JUMP JUMPDEST PUSH0 DUP4 ADD MSTORE POP PUSH1 0x20 PUSH2 0x3CC DUP5 DUP3 DUP6 ADD PUSH2 0x301 JUMP JUMPDEST PUSH1 0x20 DUP4 ADD MSTORE POP PUSH1 0x40 PUSH2 0x3E0 DUP5 DUP3 DUP6 ADD PUSH2 0x35B JUMP JUMPDEST PUSH1 0x40 DUP4 ADD MSTORE POP PUSH1 0x60 PUSH2 0x3F4 DUP5 DUP3 DUP6 ADD PUSH2 0x35B JUMP JUMPDEST PUSH1 0x60 DUP4 ADD MSTORE POP SWAP3 SWAP2 POP POP JUMP JUMPDEST PUSH0 PUSH1 0xFF DUP3 AND SWAP1 POP SWAP2 SWAP1 POP JUMP JUMPDEST PUSH2 0x415 DUP2 PUSH2 0x400 JUMP JUMPDEST DUP2 EQ PUSH2 0x41F JUMPI PUSH0 DUP1 REVERT JUMPDEST POP JUMP JUMPDEST PUSH0 DUP2 CALLDATALOAD SWAP1 POP PUSH2 0x430 DUP2 PUSH2 0x40C JUMP JUMPDEST SWAP3 SWAP2 POP POP JUMP JUMPDEST PUSH0 DUP2 SWAP1 POP SWAP2 SWAP1 POP JUMP JUMPDEST PUSH2 0x448 DUP2 PUSH2 0x436 JUMP JUMPDEST DUP2 EQ PUSH2 0x452 JUMPI PUSH0 DUP1 REVERT JUMPDEST POP JUMP JUMPDEST PUSH0 DUP2 CALLDATALOAD SWAP1 POP PUSH2 0x463 DUP2 PUSH2 0x43F JUMP JUMPDEST SWAP3 SWAP2 POP POP JUMP JUMPDEST PUSH0 DUP1 PUSH0 DUP1 PUSH1 0x80 DUP6 DUP8 SUB SLT ISZERO PUSH2 0x481 JUMPI PUSH2 0x480 PUSH2 0x196 JUMP JUMPDEST JUMPDEST PUSH0 DUP6 ADD CALLDATALOAD PUSH8 0xFFFFFFFFFFFFFFFF DUP2 GT ISZERO PUSH2 0x49E JUMPI PUSH2 0x49D PUSH2 0x19A JUMP JUMPDEST JUMPDEST PUSH2 0x4AA DUP8 DUP3 DUP9 ADD PUSH2 0x36F JUMP JUMPDEST SWAP5 POP POP PUSH1 0x20 PUSH2 0x4BB DUP8 DUP3 DUP9 ADD PUSH2 0x422 JUMP JUMPDEST SWAP4 POP POP PUSH1 0x40 PUSH2 0x4CC DUP8 DUP3 DUP9 ADD PUSH2 0x455 JUMP JUMPDEST SWAP3 POP POP PUSH1 0x60 PUSH2 0x4DD DUP8 DUP3 DUP9 ADD PUSH2 0x455 JUMP JUMPDEST SWAP2 POP POP SWAP3 SWAP6 SWAP2 SWAP5 POP SWAP3 POP JUMP JUMPDEST PUSH0 DUP2 ISZERO ISZERO SWAP1 POP SWAP2 SWAP1 POP JUMP JUMPDEST PUSH2 0x4FD DUP2 PUSH2 0x4E9 JUMP JUMPDEST DUP3 MSTORE POP POP JUMP JUMPDEST PUSH0 PUSH1 0x20 DUP3 ADD SWAP1 POP PUSH2 0x516 PUSH0 DUP4 ADD DUP5 PUSH2 0x4F4 JUMP JUMPDEST SWAP3 SWAP2 POP POP JUMP JUMPDEST PUSH0 DUP2 SWAP1 POP SWAP3 SWAP2 POP POP JUMP JUMPDEST PUSH32 0x1901000000000000000000000000000000000000000000000000000000000000 PUSH0 DUP3 ADD MSTORE POP JUMP JUMPDEST PUSH0 PUSH2 0x55A PUSH1 0x2 DUP4 PUSH2 0x51C JUMP JUMPDEST SWAP2 POP PUSH2 0x565 DUP3 PUSH2 0x526 JUMP JUMPDEST PUSH1 0x2 DUP3 ADD SWAP1 POP SWAP2 SWAP1 POP JUMP JUMPDEST PUSH0 DUP2 SWAP1 POP SWAP2 SWAP1 POP JUMP JUMPDEST PUSH2 0x58A PUSH2 0x585 DUP3 PUSH2 0x436 JUMP JUMPDEST PUSH2 0x570 JUMP JUMPDEST DUP3 MSTORE POP POP JUMP JUMPDEST PUSH0 PUSH2 0x59A DUP3 PUSH2 0x54E JUMP JUMPDEST SWAP2 POP PUSH2 0x5A6 DUP3 DUP6 PUSH2 0x579 JUMP JUMPDEST PUSH1 0x20 DUP3 ADD SWAP2 POP PUSH2 0x5B6 DUP3 DUP5 PUSH2 0x579 JUMP JUMPDEST PUSH1 0x20 DUP3 ADD SWAP2 POP DUP2 SWAP1 POP SWAP4 SWAP3 POP POP POP JUMP JUMPDEST PUSH2 0x5CF DUP2 PUSH2 0x436 JUMP JUMPDEST DUP3 MSTORE POP POP JUMP JUMPDEST PUSH2 0x5DE DUP2 PUSH2 0x400 JUMP JUMPDEST DUP3 MSTORE POP POP JUMP JUMPDEST PUSH0 PUSH1 0x80 DUP3 ADD SWAP1 POP PUSH2 0x5F7 PUSH0 DUP4 ADD DUP8 PUSH2 0x5C6 JUMP JUMPDEST PUSH2 0x604 PUSH1 0x20 DUP4 ADD DUP7 PUSH2 0x5D5 JUMP JUMPDEST PUSH2 0x611 PUSH1 0x40 DUP4 ADD DUP6 PUSH2 0x5C6 JUMP JUMPDEST PUSH2 0x61E PUSH1 0x60 DUP4 ADD DUP5 PUSH2 0x5C6 JUMP JUMPDEST SWAP6 SWAP5 POP POP POP POP POP JUMP JUMPDEST PUSH2 0x630 DUP2 PUSH2 0x2E2 JUMP JUMPDEST DUP3 MSTORE POP POP JUMP JUMPDEST PUSH2 0x63F DUP2 PUSH2 0x334 JUMP JUMPDEST DUP3 MSTORE POP POP JUMP JUMPDEST PUSH0 PUSH1 0xA0 DUP3 ADD SWAP1 POP PUSH2 0x658 PUSH0 DUP4 ADD DUP9 PUSH2 0x5C6 JUMP JUMPDEST PUSH2 0x665 PUSH1 0x20 DUP4 ADD DUP8 PUSH2 0x5C6 JUMP JUMPDEST PUSH2 0x672 PUSH1 0x40 DUP4 ADD DUP7 PUSH2 0x627 JUMP JUMPDEST PUSH2 0x67F PUSH1 0x60 DUP4 ADD DUP6 PUSH2 0x636 JUMP JUMPDEST PUSH2 0x68C PUSH1 0x80 DUP4 ADD DUP5 PUSH2 0x636 JUMP JUMPDEST SWAP7 SWAP6 POP POP POP POP POP POP JUMP INVALID GASLIMIT PUSH25 0x616D706C654D65737361676528737472696E67206D65737361 PUSH8 0x652C75696E743235 CALLDATASIZE KECCAK256 PUSH23 0x616C75652C616464726573732066726F6D2C6164647265 PUSH20 0x7320746F29A2646970667358221220D05A873D85 PUSH23 0xE6CE5A69B8E64E287DF9377F26E49F27610A7584DB39AD SHR BLOBHASH CALLDATACOPY PUSH5 0x736F6C6343 STOP ADDMOD BYTE STOP CALLER "
				},
				"gasEstimates": {
					"creation": {
						"codeDepositCost": "361600",
						"executionCost": "infinite",
						"totalCost": "infinite"
					},
					"external": {
						"verifyMessage((string,uint256,address,address),uint8,bytes32,bytes32)": "infinite"
					},
					"internal": {
						"hashDomain(struct EIP712Domain memory)": "infinite",
						"hashMessage(struct ExampleMessage memory)": "infinite"
					}
				},
				"methodIdentifiers": {
					"verifyMessage((string,uint256,address,address),uint8,bytes32,bytes32)": "9fd7124e"
				}
			},
			"storageLayout": {
				"storage": [
					{
						"astId": 23,
						"contract": "contracts/eip712.sol:EIP712Example",
						"label": "DOMAIN_SEPARATOR",
						"offset": 0,
						"slot": "0",
						"type": "t_bytes32"
					}
				],
				"types": {
					"t_bytes32": {
						"encoding": "inplace",
						"label": "bytes32",
						"numberOfBytes": "32"
					}
				}
			},
			"userdoc": {
				"kind": "user",
				"methods": {},
				"version": 1
			}
		}
	}
}